:020000040800F2
:10000000B8050020010100081F1900085117000859
:100010001D1900089901000889200008000000004F
:10002000000000000000000000000000AF1B0008FE
:10003000D30100080000000021190008B11B0008CE
:100040001B0100081B0100081B0100081B01000820
:100050001B0100081B0100081B0100081B01000810
:100060001B0100081B0100081B0100081B01000800
:100070001B0100081B0100081B0100081B010008F0
:100080009D0100081B0100081B0100081B0100085E
:100090001B0100081B0100081B010008D501000816
:1000A0001B0100081B0100081B0100081B010008C0
:1000B0001B0100081B0100081B0100081B010008B0
:1000C0001B0100081B0100081B0100081B010008A0
:1000D0001B0100081B010008212000081B0100086B
:1000E0001B0100081B0100081B010008DFF80CD0F1
:1000F00000F040F80048004749240008B8050020F7
:100100000648804706480047FEE7FEE7FEE7FEE7B1
:10011000FEE7FEE7FEE7FEE7FEE7FEE7351C000828
:10012000ED000008D2B201E000F8012B491EFBD21D
:1001300070470022F6E710B513460A4604461946F2
:10014000FFF7F0FF204610BD30B50B4601460020FA
:100150002022012409E021FA02F59D4205D303FA89
:1001600002F5491B04FA02F52844151EA2F101020A
:10017000F1DC30BD064C074D06E0E06840F00103BD
:1001800094E8070098471034AC42F6D3FFF7B2FF6B
:10019000DC240008FC240008FEE70000014800F011
:1001A0008FB800007401002030B590F84050012451
:1001B000AC40C56B6C60046863604368102B0368D7
:1001C00003D099600068C26030BD9A600068C16069
:1001D00030BD70474FF4007000F09AB972B6FEE778
:1001E00010B590F821100022022905D00421816366
:1001F00080F82020012010BD01680B6823F00E0359
:100200000B6001680B6823F001030B6090F840302D
:10021000C46B012101FA03F3636080F8211080F8B8
:100220002020104610BD000010B590F821100024C9
:10023000022903D00421816301243DE001680A689A
:1002400022F00E020A6001680A6822F001020A60C8
:100250001A4A0168914201D1012121E0174A143262
:10026000914201D110211BE0144A2832914201D160
:10027000891515E0114A3C32914201D189140FE0F1
:100280000E4A5032914202D14FF4803108E00B4ABD
:100290006432914202D14FF4801101E04FF080713D
:1002A000064A083A5160012180F82110002180F8A7
:1002B0002010416B01B18847204610BD0800024064
:1002C0002DE9F05FC16B0C6801680B68D0F840C085
:1002D000042202FA0CF2494DDFF824A1494E4A4F9C
:1002E000DFF828B1DFF828E122422CD05A072AD5BE
:1002F0000A68920603D40A6822F004020A600168C0
:10030000A94201D1042219E0514501D1402215E052
:10031000B14202D14FF4806210E0B94202D14FF4F1
:1003200080420BE0594502D14FF4802206E071452E
:1003300002D14FF4800201E04FF080622F4908396A
:100340004A60C16A3BE04FF0020808FA0CF818EA6C
:10035000040F4FF000094FF0010235D05FEA8378B7
:1003600032D50B689B0605D40B6823F00A030B609B
:1003700080F821200168A94201D1022219E05145EB
:1003800001D1202215E0B14202D14FF4007210E0F9
:10039000B94202D14FF400520BE0594502D14FF45B
:1003A000003206E0714502D14FF4001201E04FF037
:1003B0000072124908394A6080F82090816A002949
:1003C0001AD0BDE8F05F0847082505FA0CF525426C
:1003D00012D01B0710D50B6823F00E030B6090F8AA
:1003E0004010C36B02FA01F15960826380F821204A
:1003F00080F82090016BE2E7BDE8F09F0800024022
:100400001C000240300002404400024058000240FC
:100410006C00024030B528B308C8134914221944AF
:10042000B1FBF2F18900C163104981630221417778
:100430001A6843F6F0718A43D0E900142143D0E9E9
:1004400002452C43214304692143446921438469C3
:100450002143114319600021416301224277017752
:10046000084630BD012030BDF8FFFDBF000002404E
:1004700070B5044690F82000002501280CD001201A
:1004800084F8200094F821600020012E06D084F822
:1004900020000225284670BD022070BD022684F887
:1004A0002160A0632068066826F0010606602046E9
:1004B000FFF77AFEE06A00282068016802D041F068
:1004C0000E0106E021F0040101602068016841F09E
:1004D0000A0101602068016841F001010160D9E76B
:1004E00070B5044600F01EF90546601C02D00448B1
:1004F0000078044400F016F9401BA042FAD370BD06
:1005000004000020B0F5007F01D101F023B970474D
:10051000044910B50A68024202D00860FFF7F2FFF2
:1005200010BD0000140401402DE9F84FDFF8B89128
:100530000024A9F1040B23460F2709F1040AABF1AB
:10054000040EC9E00125A5402A40AA427DD1674E8C
:10055000D1F804C0ACEB0608B44532D014DCBCF1D1
:10056000030F3AD009DCBCF1000F2AD0BCF1010F17
:100570001CD0BCF1020F31D11DE0BCF1110F17D01E
:10058000BCF1120F2AD119E0B8F5881F19D006DC8A
:10059000B8F5803F15D0B8F5801F1FD111E0B8F530
:1005A000001F0ED0B8F5041F18D10AE0CB6815E083
:1005B000CB681B1D12E0CB6808330FE0CB680C330F
:1005C0000CE08B682BB1012B4FF0080303D0456181
:1005D00004E0042302E0056100E00023FF2A01D8C3
:1005E000064601E000F104064FEA840501D9A5F1B1
:1005F0002005D6F8008007FA05FC28EA0C0803FA63
:1006000005F548EA0508C6F800804D68ED0062D59A
:10061000374DAE6946F00106AE61AD6924F00306C0
:1006200005F001050095334D06EB050CDCF808508C
:10063000A607360F07FA06F825EA0805DFF8B8809E
:10064000404503D14FF0000817E044E0DFF8AC80EC
:10065000404502D14FF001080FE0DFF8A48040458B
:1006600002D14FF0020808E0DFF89880404502D13F
:100670004FF0030801E04FF0040808FA06F848EAD2
:100680000508CCF808804D68D9F80060ED024D46A9
:1006900001D5164300E096432E604D68DAF80060FD
:1006A000AD02554601D5164300E096432E604D68D5
:1006B000DBF80060AD035D4601D5164300E09643CC
:1006C0002E604D68DEF80060ED03754601D51643D7
:1006D00000E096432E60641C0D682A46E5407FF4D6
:1006E00031AFBDE8F88F0000080401400000111090
:1006F000001002400000014000080140000C0140D1
:100700000010014000140140C26821EA02030A40BF
:1007100043EA0241016170470AB10161704709046F
:10072000FBE70000014880687047000004000020DB
:1007300002488168027811448160704704000020FB
:10074000074810B5016841F010010160032000F076
:100750006DF80F2000F006F800F024F8002010BD1E
:100760000020024070B50D4D04464FF47A71287890
:10077000B1FBF0F00A490968B1FBF0F000F07FFD31
:1007800048B9102C07D200222146501E00F02EF846
:1007900000206C6070BD012070BD000004000020CE
:1007A00010000020094808B5816941F0010181610C
:1007B000816901F001010091C16941F08051C1617D
:1007C000C06900F08050009008BD00000010024099
:1007D000002809DB00F01F02012191404009800040
:1007E00000F1E020C0F8001170470000F0B40E4B9B
:1007F0001B680C46C3F30223C3F10705042D00D97F
:100800000425191D072901D2002300E0DB1E012663
:1008100006FA05F1491E214099409E40761E164079
:100820003143F0BC01F042BC0CED00E0064900F0A1
:10083000070208684FF6FF03184040EA0220034A07
:1008400010430860704700000CED00E00000FA055E
:10085000014901200862704700000E4210B50146B0
:100860000020234C012922D0022939D010291DD182
:1008700061682268D20119D51E48C1F38342C903B9
:10088000805C0AD561681B4AC1F34041921E515CED
:10089000194AB2FBF1F1484301E018494843616845
:1008A000490203D440000321B0FBF1F010BD226ADD
:1008B000C2F30121012903D1920701D5C80310BD5C
:1008C000022905D1626A920702D549F6404010BD5F
:1008D0000329FCD121688903F9D54FF2244010BDCA
:1008E00000F02AF96168C1F38131491C4900DBE756
:1008F00000100240B424000800127A0000093D00F4
:100900002DE9F84305460078354CC00754D0E0691E
:100910000026C00008D4E06940F08050E061E06942
:10092000012600F0805000902E480168C90512D4BD
:100930000168804641F480710160FFF7F3FE0746CD
:1009400005E000BFFFF7EEFEC01B642823D8D8F8EF
:100950000000C005F6D5206A10F4407021D0A988A7
:1009600001F4407181421CD0206A1F49012220F409
:1009700040700A6000220A602062C00711D0FFF7B1
:10098000D1FE074641F2883808E000BFFFF7CAFEF3
:10099000C11B414502D90320BDE8F883206A8007C6
:1009A000F4D5206A696820F44070084320621EB1C3
:1009B000E06920F08050E0612878800705D5606804
:1009C000A96820F44040084360602878C00605D537
:1009D0006068E96820F48000084360600020DBE77D
:1009E0000010024000700040400442422DE9F047F0
:1009F0000F46050061D0434E306800F00700B84252
:100A000009D2306820F0070038433060306800F0C9
:100A10000700B84251D128683B4C810712D54007E6
:100A200003D5606840F4E06060602878000703D573
:100A3000606840F4605060606068A96820F0F00071
:100A4000084360602878C00728D06868012810D063
:100A50002168022810D0890700292EDA616821F068
:100A6000030101436160FFF75DFE804641F2883972
:100A70000DE021688903EFE78901EDE7FFF752FEFA
:100A8000A0EB0801494502D90320BDE8F087606862
:100A9000696800F00C00B0EB810FEFD1306800F016
:100AA0000700B8420BD9306820F0070038433060A7
:100AB000306800F00700B84201D00120E5E728784F
:100AC000400705D56068E96820F4E060084360608D
:100AD0002878000706D56068296920F4605040EA4C
:100AE000C100606000F038F86168084AC1F3031182
:100AF000515CC8400649086006480068FFF732FEAE
:100B00000020C2E70020024000100240C424000878
:100B100010000020080000200448054900684968CA
:100B2000044AC1F30221515CC84070471000002004
:100B300000100240D42400080448054900684968B0
:100B4000044AC1F3C221515CC84070471000002024
:100B500000100240D42400080E4A51680E4801F0EB
:100B60000C03042B11D0082B0FD10C48C1F3834385
:100B7000C903C05C0AD55168084AC1F34041921EBE
:100B8000515C054A5043B0FBF1F0704704494843BB
:100B9000704700000010024000127A00A2240008F2
:100BA00000093D002DE9F84F040070D02078C04DB9
:100BB000C00749D06868C0F38100012807D0686881
:100BC000C0F38100022809D16868C00306D52868EF
:100BD000800339D560680028E7D035E06068B0F55B
:100BE000803F0BD010B1B0F5A02F11D0286820F4B1
:100BF00080302860286820F4802002E0286840F4D3
:100C000080302860606890B1FFF78CFD06460AE0EE
:100C1000286840F480202860F0E700BFFFF782FDDD
:100C2000801B642873D828688003F7D50CE0FFF791
:100C300079FD064605E000BFFFF774FD801B6428C0
:100C4000F0D828688003F7D420789A4E80074FF0B8
:100C500001094FF0000839D5686810F00C0F07D073
:100C60006868C0F38100022809D16868C00306D40F
:100C70002868800714D52069012808D110E0206970
:100C8000B0B1C6F80090FFF74DFD074605E00AE158
:100C9000FFF748FDC01B0228C4D828688007F7D595
:100CA0002868616920F0F80040EAC10028600DE082
:100CB000C6F80080FFF736FD074604E0FFF732FD77
:100CC000C01B022823D828688007F7D420780007A3
:100CD0002CD57948A169D9B1C0F80090FFF722FD61
:100CE000074604E0FFF71EFDC01B02280FD8686A04
:100CF0008007F7D571484FF4FA510068B0FBF1F066
:100D0000009000BF0098411E0091FAD20EE080E0F2
:100D1000C0F80080FFF706FD074604E0FFF702FD7C
:100D2000C01B022875D8686A8007F7D4207840076E
:100D300060D5E8690027C00008D4E86940F0805019
:100D4000E861E869012700F0805000905C48016884
:100D5000C90513D40168834641F480710160FFF72F
:100D6000E1FC824606E000BFFFF7DCFCA0EB0A00D6
:100D700064284ED8DBF80000C005F5D5E0680128EE
:100D80000AD008B1052813D0286A20F00100286293
:100D9000286A20F0040002E0286A40F0010028627E
:100DA000E06841F2883B98B1FFF7BCFC82460BE05B
:100DB000286A40F004002862EEE700BFFFF7B2FCAB
:100DC000A0EB0A0159455AD8286A8007F6D50CE0ED
:100DD000FFF7A8FC824605E0FFF7A4FCA0EB0A01A0
:100DE00059454CD8286A8007F6D41FB1E86920F02D
:100DF0008050E861E06988B36968C1F38101022924
:100E000044D00228C6F8608004D0FFF78BFC04466B
:100E100038E034E0FFF786FC074604E0FFF782FC89
:100E2000C01B02282BD828688001F7D4206AB0F5AF
:100E3000803F05D16868A16820F4003008436860ED
:100E4000D4E908010843696821F474110843686013
:100E5000C6F86090FFF766FC044606E025E000BF98
:100E6000FFF760FC001B022809D828688001F7D52D
:100E70001BE000BFFFF756FC001B022802D903202D
:100E8000BDE8F88F28688001F4D40EE00128F7D07F
:100E90006868226A00F48031914204D1616A00F4EA
:100EA0007010884201D00120EAE70020E8E7000046
:100EB0000010024000004242800442421000002024
:100EC00000700040024850F8210080B270470000D6
:100ED000006C0040024800EB810091B20160704755
:100EE000006C0040F8B505004FF0000016460C46B7
:100EF000009006D02CB100226946284600F019F86F
:100F000008B10120F8BD287B2070E87BE070697B88
:100F10006170A97BA17056B100F00CFDE0706078A3
:100F200000F008FD6070A07800F004FDA0700020C3
:100F3000F8BD2DE9F04791460C465FEA00084AD01B
:100F400084B3D8F800004068400744D4404600F01D
:100F50008FFD4FF461620546B0FBF2F1B0FBF2F396
:100F600002FB13503C23B0FBF3F0B5FBF2F66070CC
:100F700002FB1650B0FBF3F203FB1200A07018291D
:100F800031D31820B1FBF0F7B1FBF0F200FB1210E7
:100F90002070404600F065FD411C04D0A84202D9F3
:100FA000461B02E017E04FF0FF36A7EB071000EBFF
:100FB0004000C0EB001005EBC0152946404600F08C
:100FC000E2FD40B9701C01D0711900E03146404685
:100FD00000F0C5FD10B10120BDE8F087394640465C
:100FE00000F0B3FC00E02170B9F1000F0BD02078C5
:100FF00000F0A0FC2070607800F09CFC6070A0788D
:1010000000F098FCA0700020E6E7000070B5040036
:1010100003D0607C002610B105E0012070BD26746D
:10102000204600F03DF802206074204600F00AF9E6
:10103000042550BB204600F0DFFC30BB206841682F
:1010400021F007014160A06820B11448016821F037
:10105000010101601148001F0168A26821F460715C
:10106000114301606068411C04D10120FFF7F6FBC9
:1010700058B1401E2268C0F303419160216880B2DC
:10108000C860204600F0D2FC08B16574C5E7E6737D
:1010900001206073A0736074002070BD306C00404C
:1010A00008B50068084988420DD1FFF7D1FB074811
:1010B000C16941F00061C161C069054900F000608B
:1010C00000900120086008BD002800400010024088
:1010D0003C0442422DE9F0410D4604003BD0C5B32B
:1010E000207C01283AD04FF0010884F810800220BB
:1010F0006074E87872B300F014FCE073687800F074
:1011000010FC6073A87800F00CFCA073C2B2617B85
:10111000E07B00F0F9FC20732870204600F0A8FC6A
:101120004FF46161B0FBF1F1002518292DD9182287
:10113000B1FBF2F1A1EB011101EB4101C1EB011196
:1011400000EBC1163146204600F01DFD0427C8B94A
:101150000BE000E004E00120BDE8F0810220FBE7A5
:10116000E07368786073A878CFE7204600F079FCD8
:10117000411C0AD0B04208D206490144204600F082
:10118000EEFC10B167742574E5E784F811802574CE
:101190000020E1E7805101002DE9F0410D460400F7
:1011A00024D01DB3207C012823D04FF0010884F8FF
:1011B0001080022060742878EAB100F0B2FB4FF48E
:1011C000616100FB01F6687800F0ABFBC0EB00103A
:1011D00006EB8006A87800F0A4FB351829462046C7
:1011E00000F0D1FC0026042710BB0FE00120BDE871
:1011F000F0810220FBE74FF4616148436978C1EB5D
:10120000011100EB8100A9784518E7E720684168E3
:1012100021F005014160204600F023FC411C0AD06A
:10122000A84208D206490144204600F098FC10B1BB
:1012300067742674DAE784F8118026740020D6E7F4
:101240008051010070B504000AD02068416821F087
:1012500008014160FFF766FA05464FF47A7608E028
:10126000012070BDFFF75EFA401BB04201D9032098
:1012700070BD206840680007F4D5002070BD10B52F
:10128000401EB0F1807F01D3012010BD4FF0E0245B
:1012900060610F21601700F009FF0020A0610720A6
:1012A0002061002010BD704770470000F8B501684C
:1012B00004460868CA684B6910F00F0F4FF000052C
:1012C00059D003F0010602F49077374365D0C10787
:1012D00005D0D10503D5616C41F00101616441077E
:1012E00005D5D90703D0616C41F002016164810723
:1012F00005D5D90703D0616C41F004016164010791
:1013000007D502F02001314303D0616C41F00801A0
:101310006164616C00293AD0800604D5900602D53C
:10132000204600F03CFD20684069616CC0F38010ED
:10133000090700D460B3204600F0FCFC2068406937
:10134000400621D52068143050E8001F21F04001EC
:1013500040E80012002AF5D1E06BA8B16D49416365
:10136000E06BFEF761FF002811D0E06B416B01B02C
:10137000BDE8F040084783060FD593060DD52046FB
:10138000BDE8F84000F00BBD2046FFF78DFFF8BD2B
:101390002046FFF789FF6564F8BD266B2023012EE8
:1013A0007CD1C6067AD5D60678D5086848680090FC
:1013B00048694FF00206400640D5E16B0868406876
:1013C0000004000CE8D0A28D8242E5D9E08588694E
:1013D00020282DD020680C3050E8001F21F48071A7
:1013E00040E80012002AF5D12068143050E8001FB0
:1013F00021F0010140E80012002AF5D120681430E4
:1014000050E8001F21F0400140E80012002AF5D109
:1014100084F84230256320680C3050E8001F21F02A
:10142000100140E80012002AF5D1E06BFEF7D8FE6B
:101430006663A08DE18D401A81B22AE0A08DE18D16
:10144000401A81B2E08D0028A6D00029A4D02268DD
:101450000C3252E8000F20F4907042E80007002F91
:10146000F5D12068143050E8002F22F0010240E846
:101470000027002FF5D184F84230256320680C3016
:1014800050E8002F22F0100240E80023002BF5D195
:1014900066632046FFF707FFF8BDFFE705062BD57B
:1014A000150629D594F841002128F5D1A068B0F59A
:1014B000805F01D12069B0B1206A411C216221689E
:1014C00000784860E08C401E0004000CE084E3D10A
:1014D0002068C16821F08001C1602068C16841F0C6
:1014E0004001C160D8E7206A0088C0F30800486066
:1014F000206A801C2062E5E74006CDD55006CBD59A
:10150000CA68204622F04002CA6084F8413000F0E8
:101510001EF9C1E7371C000870B5040004D094F828
:101520004100002510B106E0012070BD84F8405054
:10153000204600F023F8242084F841002068C16888
:1015400021F40051C160204600F08AFC2068016946
:1015500021F4904101612068416921F02A01416133
:101560002068C16841F40051C1606564202084F89E
:10157000410084F842006563002070BD70B586B0FC
:1015800000250646009501950295039500682349BC
:10159000884240D12249C86940F40030C861C86916
:1015A00000F400300490886940F004008861886984
:1015B0001C4C00F0040004900420009002200190D4
:1015C0000320039069462046FEF7AEFF0820CDE9D0
:1015D00000050120029069462046FEF7A5FF134C46
:1015E0001148C4E900058020C4E90250202025618B
:1015F000C4E905502046E561FEF70CFF08B1FEF78F
:10160000EDFDF4630022114626206662FFF7EEF836
:101610002620FFF7DDF806B070BD00000044004052
:1016200000100240000801406C00024074010020DC
:1016300090F84230202B01D00220704721B11AB11E
:101640000023036300F068BC0120704710B5084A0E
:10165000016891420BD1074C074B21784A4219444B
:10166000D2B24FF0FF3300F025F80020207010BDFB
:1016700000440040000000201800002070B50A4A15
:10168000016891420ED1094C4FF0FF332178C1F12E
:101690008002D5B2064A11442A4600F00BF82078A1
:1016A0002844207070BD000000440040000000206D
:1016B000180000202DE9F843044690F841001F4629
:1016C00016460D46202802D00220BDE8F8837DB1E1
:1016D00076B100206064212084F84100FFF722F8F1
:1016E000A6848046E684A068B0F5805F02D003E05F
:1016F0000120EAE7206910B12E4600250EE0002601
:101700000CE08021204600F04FFCA0B9AEB116F8E5
:10171000010B21684860E08C401EE084E08C434669
:101720004FF0000200970028EBD14FF04001204617
:1017300000F03AFC30B10320C7E735F8020BC0F3E4
:101740000800E6E7202084F841000020BDE770474C
:10175000FEE7000001210148FEF7D6BF0008014066
:10176000094808B5416941F0010141614069002221
:1017700000F00100009011461020FFF737F8BDE897
:1017800008401020FFF724B80010024070B586B062
:10179000002520480095019502950395816941F047
:1017A00010018161816901F010010491816941F0AA
:1017B00020018161816901F020010491816941F07A
:1017C000040181618069144E00F00400012204903C
:1017D00011463046FEF7A0FF0320CDE90250012458
:1017E0000094694601943046FEF79EFE6002009028
:1017F0000A48CDE9010469463046FEF795FE00220D
:1018000011461720FEF7F2FF1720FEF7E1FF06B0A2
:1018100070BD0000001002400008014000002110CF
:101820003EB500212C4801910091C26942F000624E
:10183000C261C26902F000620292C26942F0805243
:10184000C261C069254A00F08050029024480260BD
:101850004A1EC0E90121FFF7D9FB08B1FEF7BEFC23
:1018600001211F48FFF72EFB4AF2A554A04232D0B7
:1018700022208DF8040012208DF8050030208DF80C
:101880000600012201A91648FFF786FC08B1FEF701
:10189000A5FC01208DF8000005208DF801008DF8D1
:1018A000020023208DF80300012269460C48FFF74F
:1018B00011FC08B1FEF792FC224601210848FFF70F
:1018C00009FB012269460648FFF704FC012201A931
:1018D0000348FFF761FC3EBD0010024000280040B5
:1018E000180100200C4810B50A4901604FF4E1319D
:1018F0004160002181600C22C160C0E90412816155
:10190000C161FFF709FE002803D0BDE81040FEF7D3
:1019100065BC10BD004400402C010020FEE7FEE73E
:101920007047010901EB810100F00F0000EB41005D
:10193000C0B27047002102E00A38C0B2491C0A2830
:10194000FAD2090740EA116070472DE9F0410446D8
:101950000025C07B627BA37B42E0012A16D0032ACC
:1019600014D0052A12D0072A10D0082A0ED00A2A2D
:101970000CD00C2A0AD0042A10D0062A0ED0092A2C
:101980000CD00B2A0AD0022A0DD028E01F2B0CD332
:101990000C2A05D101221346401C20E01E2B04D343
:1019A0000123521C1BE01C2B02D203F1010316E0A1
:1019B00011D183B29E0710D16426B3FBF6F706FB64
:1019C000173636B94FF4C876B3FBF6F706FB173374
:1019D0001BB91D2303E01D2B01D1032201236D1C24
:1019E0008D42BAD3D1B2E0736173DAB2A27300F060
:1019F0008BF82073BDE8F08170B50446FEF792FEC7
:101A000005464FF47A7606E0FEF78CFE401BB042A6
:101A100001D9032070BD206840688006F4D5206895
:101A2000416841F010014160002070BD70B504466E
:101A30000068416821F010014160FEF773FE054621
:101A40004FF47A7607E000BFFEF76CFE401BB04211
:101A500001D9032070BD206840688006F4D50020BD
:101A600070BD0168086A496A89B241EA004070475E
:101A7000006881698AB2C1698BB2816989B28A4280
:101A800003D0C06961F31F40704743EA02407047CA
:101A900000B585B0002003900246049003A91048C9
:101AA000FFF747FA002204A90D48FFF71BFA9DF83B
:101AB0000C009DF80E209DF80D108DE807009DF894
:101AC00013109DF812309DF8112006A001F5FA615F
:101AD00000F0DCFA4FF47A70FEF702FD05B000BDAD
:101AE00018010020253034642D253032642D253036
:101AF00032642020253032643A253032643A253071
:101B00003264200A00000000F0B56424C1EBC10378
:101B10000927A500072603EB01130329B3FBF7F1FF
:101B200000F5FA60114401440AD2401EB0FBF4F201
:101B300001EB9001B0FBF5F0891A0844001D08E0A4
:101B4000B0FBF4F201EB9001B0FBF5F0891A084408
:101B5000801CB0FBF6F106FB1100C0B2F0BD70B501
:101B60000D4606460024FFF747FF48B93168280CA8
:101B700008623168A8B248623046FFF757FF00B1EB
:101B80000124204670BD70B50D4606460024FFF7BF
:101B900033FF48B93168280C88613168A8B2C86140
:101BA0003046FFF743FF00B10124204670BD704767
:101BB000FEF7BEBD70B594B028216846FEF7B9FAAD
:101BC00014210AA8FEF7B5FA002501240F951195F6
:101BD000052012950090CDE9025410954FF4803005
:101BE000019002260494CDE907604FF4E0100990BB
:101BF0006846FEF7D7FF08B172B6FEE70F20CDE9C1
:101C00000A064FF48060CDE90C5002210AA80E9517
:101C1000FEF7ECFE08B172B6FEE74FF48070CDE936
:101C20000F400FA8FEF76CFE002801D072B6FEE749
:101C300014B070BD704710B5406A0021C185C184E1
:101C4000FFF732FB10BD70B5446A2068406994F814
:101C50004110C0F3C0100025212904D118B1E5843A
:101C6000204600F08EF82068406994F84210C0F3D6
:101C70008010222904D118B1E585204600F05AF8D9
:101C8000606C40F0100060642046FFF70DFB70BDF3
:101C900010B50146406A096809684FF000028906DC
:101CA0002ED4C28501680C3151E8003F23F48073C3
:101CB00041E80034002CF5D10168143151E8003FAF
:101CC00023F0010341E80034002CF5D10168143100
:101CD00051E8003F23F0400341E80034002CF5D1E7
:101CE000202180F84210016B012909D101680C31D3
:101CF00051E8003F23F0100341E80034002CF5D1F7
:101D00004263016B012902D0FFF7A0FC10BD818D59
:101D1000FFF7C9FA10BD10B5406A01214163016B9C
:101D2000012902D0FFF7AAFC10BD818D4908FFF7F9
:101D3000BAFA10BD01680C3151E8002F22F49072FC
:101D400041E80023002BF5D10168143151E8002F40
:101D500022F0010241E80023002BF5D1016B01299B
:101D600009D101680C3151E8002F22F0100241E83E
:101D70000023002BF5D1202180F8421000210163BF
:101D8000704701680C3151E8002F22F0C00241E891
:101D90000023002BF5D1202180F84110704708B5B1
:101DA00090F84210222901D0022008BD82684FF429
:101DB00080539A4201D1016921B1816A9A421BD0B4
:101DC0004AB10AE00268816A5268C2F308020A80D6
:101DD000816A891C08E0026972B10268526802F0E7
:101DE0007F020A70816A491C8162C18D491E090403
:101DF000090CC18503D01BE002685268F1E7016855
:101E0000CA6822F02002CA600168CA6822F480729F
:101E1000CA6001684A6922F001024A61202180F803
:101E2000421000214163026B012A03D0FFF70EFC30
:101E3000002008BD016301680C3151E8002F22F039
:101E4000100241E80023002BF5D101680A68D20690
:101E500002D50A6849680091818DFFF724FAE7E707
:101E600070B5044600680169E26821F440511143ED
:101E700001612169A0680843616908432168CA6853
:101E800041F20C639A430243CA6020684169A26927
:101E900021F44071114341611E492068884202D1FA
:101EA000FEF74AFE01E0FEF737FE00EBC00101EB52
:101EB0000012606864218000B2FBF0F3B3FBF1F321
:101EC0006FF018067343B2FBF0F5B2FBF0F605EBCA
:101ED0008305322303EB0515B5FBF1F5B6FBF1F6EF
:101EE00005F0F00505EB0615B2FBF0F6B2FBF0F0DD
:101EF000B0FBF1F06FF01802504306EB800003EBEB
:101F00000010B0FBF1F0216800F00F002844886059
:101F100070BD00000038014038B5816204468285FA
:101F2000002013466064222284F84220E56B1B4A9D
:101F3000AA62E56B1A4AEA62E56B1A4A2A63E26B07
:101F400050630A462168E06B091DFEF791FA20688C
:101F5000016840680090206948B120680C3050E862
:101F6000001F41F4807140E80012002AF5D120687A
:101F7000143050E8001F41F0010140E80012002A2F
:101F8000F5D12068143050E8001F41F0400140E8CE
:101F90000012002AF5D1002038BD0000911C000875
:101FA000171D0008471C00082DE9F0419846174608
:101FB0000E460446069D27E0681C25D02DB1FEF78D
:101FC000B1FBA0EB0800A8421ED920680C3050E8F5
:101FD000001F21F4D07140E80012002AF5D12068DA
:101FE000143050E8001F21F0010140E80012002ADF
:101FF000F5D1202084F8410084F84200002084F8C4
:1020000040000320BDE8F0812068006836EA000047
:1020100004D00020B842CFD00020F3E70120F9E738
:1020200010B50448FFF742F9BDE81040014800F040
:1020300003B800002C01002038B50F4A0168914216
:1020400018D10A68D243D20614D40A6849680091AC
:102050000A49096849680A4C4A424FF0FF3321781F
:10206000521AD5B2074A11442A46FFF723FB2078BB
:102070002844207038BD0000004400407401002056
:102080000000002018000020FEE700000FB4054B00
:1020900010B503A9044A029800F028F810BC5DF8B6
:1020A00014FB000031240008140000200907090E69
:1020B000002804DB00F1E02080F80014704700F0F5
:1020C0000F0000F1E02080F8141D704702E008C8FE
:1020D000121F08C1002AFAD170477047002001E0A2
:1020E00001C1121F002AFBD1704700002DE9FF4FEC
:1020F0008BB088460546002606E025280BD0DDE992
:102100000D1290476D1C761C28780028F5D10FB071
:102110003046BDE8F08F0024A146A2460122AE4918
:1021200000E0044315F8013F203B02FA03F00842A7
:10213000F7D128782A2810D06FF02F022878A0F144
:102140003001092915D809EB890102EB410144F05E
:10215000020400EB01096D1CF0E758F8041B5FEA6C
:10216000010903D544F40054C9F1000944F0020404
:102170006D1C28782E2817D115F8010F44F004049F
:102180002A280ED06FF02F022878A0F130010929FB
:102190000AD80AEB8A0102EB410100EB010A6D1C2F
:1021A000F2E758F804AB6D1C28786C280FD006DCD9
:1021B0004C2817D068280DD06A2814D104E0742860
:1021C00010D07A280FD10DE044F400140AE044F452
:1021D000801401E044F440146978814202D104F58E
:1021E00080146D1C6D1C2878692865D006DC0028D9
:1021F0008DD0632827D0642806D15DE06E2808D0F2
:1022000073282AD0752877D0DDE90D129047761C07
:10221000E0E0C4F30250022809D003280DD0D8F81A
:10222000001004280DD00E6008F10408D2E0D8F8A0
:102230000010F217C1E90062F6E7D8F800100E802E
:10224000F2E70E70F0E718F8041B8DF8001000207C
:102250008DF80100EB46012003E058F804BB4FF075
:10226000FF3061074FF0000701D40AE07F1C57459B
:102270000DDA8742FADB1BF807100029F6D106E0D9
:102280007F1C8742FCDB1BF807100029F8D1DDE931
:102290000D23A9EB07008146214600F0B1F8304438
:1022A000C61904E0DDE90D121BF8010B90477F1EF3
:1022B000F8D22146484688E058F8040BC4F302518E
:1022C0004FF00A0B032900D100B2042900D140B21B
:1022D000002802DA40422D2102E0210505D52B21FC
:1022E0008DF82410012104E006E0E10710D0202140
:1022F000F6E708AF089113E058F8040BC4F3025155
:102300004FF00A0B032900D180B2042900D1C0B2DA
:102310000021EEE75946FDF717FF303107F8011DA0
:102320000028F7D1ADEB070000F1200B600702D5C4
:1023300024F4803401E04FF0010ADA4502DDAAEB13
:102340000B0000E00020824600EB0B0108980144DE
:10235000A9EB01000A90E00306D4DDE90D23214634
:102360000A9800F04DF806444FF0000908E009A96A
:1023700011F80900DDE90D12904709F10109761CF9
:1023800008998945F3DBE0030CD5DDE90D232146EF
:102390000A9800F035F8064404E0DDE90D1230201B
:1023A0009047761CBAF10001AAF1010AF5DC05E0BC
:1023B000DDE90D1217F8010B9047761CBBF1000107
:1023C000ABF1010BF4DC0A982146DDE90D2300F0A6
:1023D00005F806446D1C97E6092801002DE9F04137
:1023E000044600251E461746880404D405E03946F5
:1023F0002020B0476D1C641EF9D52846BDE8F08149
:102400002DE9F041044600251E469046C80301D53B
:10241000302700E02027880404D505E041463846EF
:10242000B0476D1C641EF9D52846BDE8F081000058
:1024300013B54FF6FF73012269460248FFF73AF9D8
:1024400000981CBD2C010020FEF77AF9FFF7B2FBC3
:10245000FFF79CF9FFF784F9FFF744FAFFF7E0F97B
:102460004FF4807208490948FFF7E2F8074800680E
:10247000C16841F01001C16005A0FFF707FE00BF71
:10248000FFF706FBFCE70000180000202C010020ED
:10249000E68EA5E694B6E695B0E68DAE0A0000009D
:1024A000010202030405060708090A0B0C0D0E0FB2
:1024B0001010010202030405060708090A0B0C0D9F
:1024C0000E0F1010000000000000000001020304C5
:1024D000060708090000000001020304FC240008AC
:1024E0000000002018000000CC200008142500087F
:1024F00018000020A0050000DC20000800000000FB
:102500000100000010000000000000000024F400A2
:0425100000000000C7
:04000005080000ED02
:00000001FF
