:020000040800F2
:10000000D805002001010008BF1F0008751E000868
:10001000BD1F0008410800089524000800000000EA
:10002000000000000000000000000000C31F0008E6
:100030007B08000800000000C11F0008C51F000861
:100040001B0100081B0100081B0100081B01000820
:100050001B0100081B0100081B0100081B01000810
:100060001B0100081B0100081B0100081B01000800
:100070001B0100081B0100081B0100081B010008F0
:10008000450800081B0100081B0100081B010008AF
:100090001B0100081B0100081B0100087D08000867
:1000A0001B0100081B0100081B0100081B010008C0
:1000B0001B0100081B0100081B0100081B010008B0
:1000C0001B0100081B0100081B0100081B010008A0
:1000D0001B0100081B0100082D2400081B0100085B
:1000E0001B0100081B0100081B010008DFF80CD0F1
:1000F00000F02AFB00480047C52D0008D805002065
:100100000648804706480047FEE7FEE7FEE7FEE7B1
:10011000FEE7FEE7FEE7FEE7FEE7FEE74120000818
:10012000ED000008202A04DB203A21FA02F0002129
:10013000704721FA02F3D040C2F1200291400843F7
:1001400019467047D2B201E000F8012B491EFBD2DC
:1001500070470022F6E710B513460A4604461946D2
:10016000FFF7F0FF204610BD2DE9FE4F804681EAE3
:100170000300C00F0C46009021F0004123F0004521
:10018000B8EB0200A94105D24046214690461C46E4
:100190000B46024623F00040104347D0270DC7F31B
:1001A0000A00C3F30A510290401A019040286BDA0A
:1001B000C3F3130040F4801B0098924620B1002343
:1001C000D2EB030A63EB0B0B01985946C0F14002D6
:1001D000504600F0D4F906460D4650465946019A5D
:1001E00000F0DCF910EB08006141002487EA1152AD
:1001F00084EAE7731A4340D0009A62B3019A012A55
:100200004FEA075215DC001B61EB02014FF0004280
:1002100002EA0752CDE90042001C41F58011324646
:100220002B4600F013FA03B0BDE8F08F404621469C
:10023000F9E7001B61EB0201001C41F58013001877
:100240005B412018A2F5001747EB030140EAD57087
:10025000B6196D4111E06D084FEA360645EAC075E2
:100260004FEA0752001B61EB0201001C41F58011AF
:1002700049084FEA30000019514132462B4603B07D
:10028000BDE8F04F00F0D3B90098012240000023F0
:10029000D0EB020263EBE073009821464FEAE07472
:1002A000B8EB000061EB0401E9E783F000435BE792
:1002B00081F0004158E72DE9FE4F81EA030404F084
:1002C000004421F0004100944FF0000B23F0004364
:1002D00050EA01045ED052EA03045BD0C3F30A542F
:1002E000C1F30A552C44A4F2F3340194A0FB025448
:1002F000C1F3130141F48011C3F3130343F48013DA
:1003000001FB024400FB034E840A970A44EA81542D
:1003100047EA8357A4FB076802958D0A05FB07850A
:100320004FEA932C04FB0C542705029D4FEA065814
:1003300047EA1637B5EB08056EEB070C870E920EF1
:1003400047EA811742EA8312A7FB0201B6EB0B01D1
:1003500064EB00042B0D43EA0C335E1844EB1C5095
:10036000DA465146E7FB0201C5F313044FEA0B33AB
:1003700043EA14534FEA0432019C43EA0603A4F112
:100380000C040294009CCDE900B400F05FF903B0C6
:10039000BDE8F08F00200146F9E72DE9F04D81EA34
:1003A000030404F0004B21F0004514464FF0000A0E
:1003B00023F0004150EA050220D054EA01021DD08A
:1003C000C5F30A570246C5F31303C1F31300C1F383
:1003D0000A5640F4801543F48013A7EB0608101B5F
:1003E000D64608F2FD3873EB050002D308F1010888
:1003F00001E092185B41B8F1000F03DA00200146DA
:10040000BDE8F08D00204FF48011064684460EE0D2
:10041000171B73EB050705D3121B63EB050306439C
:100420004CEA010C49084FEA300092185B4150EA4F
:100430000107EDD152EA030012D082EA040083EAF8
:100440000501084305D0101BAB4106D20122002351
:1004500006E000224FF0004302E06FF0010253106B
:100460001AEB06004CEB085110EB0A0041EB0B01B4
:10047000BDE8F04D00F0DBB80EB540F2334102911B
:100480000021CDE900110A460B4600F0DFF803B069
:1004900000BD00F0004230F000400AD0C10D01F56F
:1004A0006071C0F3160042EA0151C20840071143CF
:1004B000704700200146704701F0004330B421F03E
:1004C000004150EA010206D00A0DA2F56072C1F3A4
:1004D0001301002A02DC30BC00207047440F44EABC
:1004E000C104C100E01830BC00EBC25000F068B895
:1004F00030B50B46014600202022012409E021FAF4
:1005000002F59D4205D303FA02F5491B04FA02F5F0
:100510002844151EA2F10102F1DC30BD2DE9F05F87
:100520000546002092469B46884606468146402462
:100530001BE02846414647462246FFF7F3FD534657
:100540005A46C01A914110D311461846224600F06F
:1005500016F82D1A67EB01084F46224601200021AC
:1005600000F00DF817EB00094E41201EA4F1010424
:10057000DFDC484631462A464346BDE8F09F202A44
:1005800004DB203A00FA02F1002070479140C2F1EA
:10059000200320FA03F3194390407047202A06DB1A
:1005A000CB17203A41FA02F043EAE07306E041FA41
:1005B00002F3D040C2F1200291400843194670472F
:1005C0000029A8BF7047401C490008BF20F0010067
:1005D000704710B4B0FA80FC00FA0CF050EA010445
:1005E00004BF10BC704749B1CCF1200421FA04F4D7
:1005F00011FA0CF118BF012121430843A3EB0C01B0
:10060000CB1D4FEA00614FEA102042BF002010BC12
:10061000704700EBC35010440029A4BF10BC7047C2
:10062000401C490008BF20F0010010BC704710B505
:10063000141E73F1000408DA401C41F10001921805
:100640005B411A4301D120F0010010BD2DE9F04DAE
:1006500092469B4611B1B1FA81F202E0B0FA80F203
:1006600020329046FFF78BFF04460F4640EA0A000F
:1006700041EA0B0153465A46084313D0114653EA48
:10068000010019D0C8F140025046FFF74BFD054666
:100690000E46504659464246FFF771FF084305D0C3
:1006A000012004E020463946BDE8F08D00200543D6
:1006B00046EAE0762C4337430A986305E40AA0EB48
:1006C00008000022FD0A44EA47540A3002D50020FF
:1006D0000146E9E7010510196941DDE908450019FE
:1006E0006941BDE8F04DA2E7C1F30A52C1F313011D
:1006F00040F2FF3341F480119A4202DA00200146B1
:10070000704740F233439A42A2F2334202DC524233
:10071000FFF708BDFFF733BF30B5041E71F10004C9
:1007200004DB4FF00044404264EB0101141E73F1FE
:10073000000405DB1C464FF00043524263EB040308
:10074000994208BF904230BD064C074D06E0E06874
:1007500040F0010394E8070098471034AC42F6D308
:10076000FFF7C8FCFC2E00081C2F000870B50446DB
:1007700000688168C943C90717D1816821F0010168
:10078000816000F045FD05460AE000BF00F040FD35
:10079000401B022804D920688068C043C00706D0E7
:1007A00020688068C043C007F0D0002070BDA06AF8
:1007B00040F01000A062E06A40F00100E062012019
:1007C00070BD0000F8B500260446009600688168F8
:1007D000C943C9072DD0816841F0010181601648E5
:1007E00016490068B0FBF1F000E0401E00900028C0
:1007F000FBD100F00DFD054616E000BF00F008FD3E
:10080000401B022810D920688068C043C0070BD065
:10081000A06A40F01000A062E06A40F00100E062CF
:1008200084F824600120F8BD20688068C043C007B8
:10083000E4D10020F8BD00001000002040420F006D
:10084000FEE70000014800F0B1BA0000900100206E
:1008500030B590F840500124AC40C56B6C60046822
:1008600063604368102B036803D099600068C2601E
:1008700030BD9A600068C16030BD70474FF40070B1
:1008800000F0BCBB72B6FEE7F8B50024009490F807
:1008900024202546012A12D0012280F824204A680B
:1008A0001F23072A0DD20668776B521E02EB8202C5
:1008B00093409F430B6893401F43776319E00220E6
:1008C000F8BD06680D2A0AD2376BD21F02EB8202EE
:1008D00093409F430B6893401F43376309E0F76AD7
:1008E0000D3A02EB820293409F430B6893401F43F3
:1008F000F7620A68072306680A2A0AD3F7680A3AE1
:1009000002EB420293409F438B6893401F43F76082
:1009100008E0376902EB420293409F438B689340A3
:100920001F4337610A68102A01D0112A20D1124BC7
:1009300002689A4217D193681B0219D4936843F452
:10094000000393600968102912D10C490C4A096808
:10095000B1FBF2F101EB8101490000E0491E009179
:100960000029FBD104E0816A41F020018162012469
:1009700080F824502046F8BD0024014010000020DB
:1009800040420F000068C06C704700002DE9F04144
:100990004FF0000704003D467ED0A06A002628B92B
:1009A000E66284F82460204600F07EF82046FFF7D7
:1009B000DDFEA16AC90600D420B1A06A40F0100093
:1009C000A06269E0A16A21F4885141F00201A162AC
:1009D0006268E169237B0A4347EA43010A43A1684D
:1009E0004FF48077B94209D0012907D05FF00001A8
:1009F00094F814C0BCF1010F02D00AE03946F7E7C1
:100A0000F3B1A36A43F02003A362E36A43F0010356
:100A1000E3622368D3F804C02CF4694C4CEA010C5F
:100A2000C3F804C021688B68DFF870C003EA0C03C8
:100A300013438B60A168B9420BD0012909D00CE0A7
:100A4000DFF85CC0A3690CEB43330B4343F4006154
:100A5000DFE7218A0D05A5F580152168CB6A23F40F
:100A600070032B43CB62216889680E4B1940914279
:100A700008D1E662A16A21F0020141F00101A16200
:100A8000BDE8F081A06A20F0020040F01000A062F2
:100A9000E06A40F00100E0620120F1E7FDF7E1FFCC
:100AA00000E0FFFFFE0E1FFF08B500680649884200
:100AB00008D10648816941F400718161806900F4C0
:100AC0000070009008BD00000024014000100240AA
:100AD0002DE9F84300270D460446009700F098FBE7
:100AE000804620688168C90508D5A06A40F02000CA
:100AF000A06284F824700120BDE8F8834168C9052C
:100B000003D4C06A10F4700F2AD0022000F016FC43
:100B10003B490968B1FBF0F62068036939490B428B
:100B20004FEA61014FEAA1121FD1C3684FEA611C6D
:100B300013EA0C0F19D103690B4225D1C06810428A
:100B400022D1142023E0681C0AD02DB100F060FBF4
:100B5000A0EB0800A84203D920680068800725D5CB
:100B6000206800688007EED52DE003690B4202D1B2
:100B7000C168114206D0026923490A4206D1C06801
:100B8000084203D1542002E0292000E0FC20464323
:100B9000009816E0681C11D02DB100F039FBA0EBD5
:100BA0000800A8420AD90098B04207D2A06A40F0D3
:100BB0000400A06284F8247003209DE70098401C84
:100BC0000090B042E6D321686FF012000860A06A7E
:100BD00040F40070A06220688068C0F3424007289B
:100BE0000CD1207B50B9A06A20F48070A062A06A6A
:100BF000C00403D4A06A40F00100A06200207BE79B
:100C000010000020244992244992240070B5044623
:100C100090F8240001280DD0012084F824002046FB
:100C2000FFF7D0FD02004FF0000005D084F824004B
:100C3000104670BD022070BDA16A40F201239943A5
:100C400041F48071A1621F4D23681F49AB4218D146
:100C50000E6816F4702F14D0A66A46F48016A662A9
:100C60000E68760505D5A66A26F4005646F4805629
:100C7000A662A66AF6040AD5E66A26F00606E662C9
:100C800006E0A66A26F48016A6625E68E9E7E062DE
:100C900084F824006FF00200186020688368C3F3B2
:100CA0004243072B05D1A84208D1096811F4702FDF
:100CB00004D0816841F480118160B9E7816841F412
:100CC000A001F9E7002801400424014010B590F884
:100CD00021100022022905D00421816380F8202000
:100CE000012010BD01680B6823F00E030B60016842
:100CF0000B6823F001030B6090F84030C46B0121B6
:100D000001FA03F3636080F8211080F82020104678
:100D100010BD000010B590F821100024022903D066
:100D20000421816301243DE001680A6822F00E027B
:100D30000A6001680A6822F001020A601A4A016822
:100D4000914201D1012121E0174A1432914201D18F
:100D500010211BE0144A2832914201D1891515E077
:100D6000114A3C32914201D189140FE00E4A5032AF
:100D7000914202D14FF4803108E00B4A6432914233
:100D800002D14FF4801101E04FF08071064A083A19
:100D90005160012180F82110002180F82010416B62
:100DA00001B18847204610BD080002402DE9F05FE0
:100DB000C16B0C6801680B68D0F840C0042202FACD
:100DC0000CF2494DDFF824A1494E4A4FDFF828B113
:100DD000DFF828E122422CD05A072AD50A68920669
:100DE00003D40A6822F004020A600168A94201D112
:100DF000042219E0514501D1402215E0B14202D14F
:100E00004FF4806210E0B94202D14FF480420BE00F
:100E1000594502D14FF4802206E0714502D14FF4CA
:100E2000800201E04FF080622F4908394A60C16AB0
:100E30003BE04FF0020808FA0CF818EA040F4FF0F4
:100E400000094FF0010235D05FEA837832D50B6894
:100E50009B0605D40B6823F00A030B6080F8212061
:100E60000168A94201D1022219E0514501D1202295
:100E700015E0B14202D14FF4007210E0B94202D144
:100E80004FF400520BE0594502D14FF4003206E016
:100E9000714502D14FF4001201E04FF00072124987
:100EA00008394A6080F82090816A00291AD0BDE88C
:100EB000F05F0847082505FA0CF5254212D01B07FC
:100EC00010D50B6823F00E030B6090F84010C36B35
:100ED00002FA01F15960826380F8212080F82090A5
:100EE000016BE2E7BDE8F09F080002401C000240F1
:100EF0003000024044000240580002406C000240B2
:100F000030B528B308C8134914221944B1FBF2F1D3
:100F10008900C16310498163022141771A6843F651
:100F2000F0718A43D0E900142143D0E902452C43F3
:100F300021430469214344692143846921431143C6
:100F4000196000214163012242770177084630BDD4
:100F5000012030BDF8FFFDBF0000024070B504461F
:100F600090F82000002501280CD0012084F82000F2
:100F700094F821600020012E06D084F8200002257C
:100F8000284670BD022070BD022684F82160A0634F
:100F90002068066826F0010606602046FFF758FC28
:100FA000E06A00282068016802D041F00E0106E0E6
:100FB00021F0040101602068016841F00A0101602C
:100FC0002068016841F001010160D9E770B504466D
:100FD00000F01EF90546601C02D004480078044465
:100FE00000F016F9401BA042FAD370BD04000020A7
:100FF000B0F5007F01D100F03FBF7047044910B544
:101000000A68024202D00860FFF7F2FF10BD00003C
:10101000140401402DE9F84FDFF8B8910024A9F13C
:10102000040B23460F2709F1040AABF1040EC9E0B3
:101030000125A5402A40AA427DD1674ED1F804C0BF
:10104000ACEB0608B44532D014DCBCF1030F3AD047
:1010500009DCBCF1000F2AD0BCF1010F1CD0BCF19F
:10106000020F31D11DE0BCF1110F17D0BCF1120FEE
:101070002AD119E0B8F5881F19D006DCB8F5803FF1
:1010800015D0B8F5801F1FD111E0B8F5001F0ED0A4
:10109000B8F5041F18D10AE0CB6815E0CB681B1D1A
:1010A00012E0CB6808330FE0CB680C330CE08B68A0
:1010B0002BB1012B4FF0080303D0456104E004235A
:1010C00002E0056100E00023FF2A01D8064601E0A6
:1010D00000F104064FEA840501D9A5F12005D6F8F0
:1010E000008007FA05FC28EA0C0803FA05F548EA2F
:1010F0000508C6F800804D68ED0062D5374DAE6931
:1011000046F00106AE61AD6924F0030605F0010565
:101110000095334D06EB050CDCF80850A607360F9A
:1011200007FA06F825EA0805DFF8B880404503D13C
:101130004FF0000817E044E0DFF8AC80404502D1F2
:101140004FF001080FE0DFF8A480404502D14FF0D6
:10115000020808E0DFF89880404502D14FF003080C
:1011600001E04FF0040808FA06F848EA0508CCF850
:1011700008804D68D9F80060ED024D4601D5164350
:1011800000E096432E604D68DAF80060AD025546E7
:1011900001D5164300E096432E604D68DBF80060F1
:1011A000AD035D4601D5164300E096432E604D68C1
:1011B000DEF80060ED03754601D5164300E0964366
:1011C0002E60641C0D682A46E5407FF431AFBDE80F
:1011D000F88F0000080401400000111000100240C8
:1011E0000000014000080140000C014000100140D7
:1011F00000140140C26821EA02030A4043EA0241A6
:10120000016170470AB1016170470904FBE7000002
:10121000014880687047000004000020024881688F
:10122000027811448160704704000020074810B51F
:10123000016841F010010160032000F06DF80F20FB
:1012400000F006F800F024F8002010BD0020024055
:1012500070B50D4D04464FF47A712878B1FBF0F06B
:101260000A490968B1FBF0F000F09CFB48B9102C6A
:1012700007D200222146501E00F02EF800206C609C
:1012800070BD012070BD000004000020100000208F
:10129000094808B5816941F001018161816901F066
:1012A00001010091C16941F08051C161C06900F044
:1012B0008050009008BD000000100240002809DBAB
:1012C00000F01F02012191404009800000F1E02060
:1012D000C0F8001170470000F0B40E4B1B680C46BC
:1012E000C3F30223C3F10705042D00D90425191DFA
:1012F000072901D2002300E0DB1E012606FA05F1D2
:10130000491E214099409E40761E16403143F0BC54
:1013100001F0D2B80CED00E0064900F007020868C1
:101320004FF6FF03184040EA0220034A10430860CA
:10133000704700000CED00E00000FA0510B5014612
:101340000020234C012922D0022939D010291DD197
:1013500061682268D20119D51E48C1F38342C903CE
:10136000805C0AD561681B4AC1F34041921E515C02
:10137000194AB2FBF1F1484301E01849484361685A
:10138000490203D440000321B0FBF1F010BD226AF2
:10139000C2F30121012903D1920701D5C80310BD71
:1013A000022905D1626A920702D549F6404010BD74
:1013B0000329FCD121688903F9D54FF2244010BDDF
:1013C00000F02AF96168C1F38131491C4900DBE76B
:1013D00000100240D42E000800127A0000093D00DF
:1013E0002DE9F84305460078354CC00754D0E06934
:1013F0000026C00008D4E06940F08050E061E06958
:10140000012600F0805000902E480168C90512D4D2
:101410000168804641F480710160FFF7F9FE0746DC
:1014200005E000BFFFF7F4FEC01B642823D8D8F8FE
:101430000000C005F6D5206A10F4407021D0A988BC
:1014400001F4407181421CD0206A1F49012220F41E
:1014500040700A6000220A602062C00711D0FFF7C6
:10146000D7FE074641F2883808E000BFFFF7D0FEFC
:10147000C11B414502D90320BDE8F883206A8007DB
:10148000F4D5206A696820F44070084320621EB1D8
:10149000E06920F08050E0612878800705D5606819
:1014A000A96820F44040084360602878C00605D54C
:1014B0006068E96820F48000084360600020DBE792
:1014C0000010024000700040400442422DE9F04705
:1014D0000F46050061D0434E306800F00700B84267
:1014E00009D2306820F0070038433060306800F0DF
:1014F0000700B84251D128683B4C810712D54007FC
:1015000003D5606840F4E06060602878000703D588
:10151000606840F4605060606068A96820F0F00086
:10152000084360602878C00728D06868012810D078
:101530002168022810D0890700292EDA616821F07D
:10154000030101436160FFF763FE804641F2883981
:101550000DE021688903EFE78901EDE7FFF758FE09
:10156000A0EB0801494502D90320BDE8F087606877
:10157000696800F00C00B0EB810FEFD1306800F02B
:101580000700B8420BD9306820F0070038433060BC
:10159000306800F00700B84201D00120E5E7287864
:1015A000400705D56068E96820F4E06008436060A2
:1015B0002878000706D56068296920F4605040EA61
:1015C000C100606000F038F86168084AC1F3031197
:1015D000515CC8400649086006480068FFF738FEBD
:1015E0000020C2E70020024000100240E42E000864
:1015F00010000020080000200448054900684968E0
:10160000044AC1F30221515CC84070471000002019
:1016100000100240F42E000804480549006849689B
:10162000044AC1F3C221515CC84070471000002039
:1016300000100240F42E00080E4A51680E4801F0D6
:101640000C03042B11D0082B0FD10C48C1F383439A
:10165000C903C05C0AD55168084AC1F34041921ED3
:10166000515C054A5043B0FBF1F0704704494843D0
:10167000704700000010024000127A00C22E0008DD
:1016800000093D002DE9F84F040070D02078C04DCE
:10169000C00749D06868C0F38100012807D0686896
:1016A000C0F38100022809D16868C00306D5286804
:1016B000800339D560680028E7D035E06068B0F570
:1016C000803F0BD010B1B0F5A02F11D0286820F4C6
:1016D00080302860286820F4802002E0286840F4E8
:1016E00080302860606890B1FFF792FD06460AE0FE
:1016F000286840F480202860F0E700BFFFF788FDED
:10170000801B642873D828688003F7D50CE0FFF7A6
:101710007FFD064605E000BFFFF77AFD801B6428C9
:10172000F0D828688003F7D420789A4E80074FF0CD
:1017300001094FF0000839D5686810F00C0F07D088
:101740006868C0F38100022809D16868C00306D424
:101750002868800714D52069012808D110E0206985
:10176000B0B1C6F80090FFF753FD074605E00AE167
:10177000FFF74EFDC01B0228C4D828688007F7D5A4
:101780002868616920F0F80040EAC10028600DE097
:10179000C6F80080FFF73CFD074604E0FFF738FD80
:1017A000C01B022823D828688007F7D420780007B8
:1017B0002CD57948A169D9B1C0F80090FFF728FD70
:1017C000074604E0FFF724FDC01B02280FD8686A13
:1017D0008007F7D571484FF4FA510068B0FBF1F07B
:1017E000009000BF0098411E0091FAD20EE080E008
:1017F000C0F80080FFF70CFD074604E0FFF708FD86
:10180000C01B022875D8686A8007F7D42078400783
:1018100060D5E8690027C00008D4E86940F080502E
:10182000E861E869012700F0805000905C48016899
:10183000C90513D40168834641F480710160FFF744
:10184000E7FC824606E000BFFFF7E2FCA0EB0A00DF
:1018500064284ED8DBF80000C005F5D5E068012803
:101860000AD008B1052813D0286A20F001002862A8
:10187000286A20F0040002E0286A40F00100286293
:10188000E06841F2883B98B1FFF7C2FC82460BE06A
:10189000286A40F004002862EEE700BFFFF7B8FCBA
:1018A000A0EB0A0159455AD8286A8007F6D50CE002
:1018B000FFF7AEFC824605E0FFF7AAFCA0EB0A01A9
:1018C00059454CD8286A8007F6D41FB1E86920F042
:1018D0008050E861E06988B36968C1F38101022939
:1018E00044D00228C6F8608004D0FFF791FC04467B
:1018F00038E034E0FFF78CFC074604E0FFF788FC93
:10190000C01B02282BD828688001F7D4206AB0F5C4
:10191000803F05D16868A16820F400300843686002
:10192000D4E908010843696821F474110843686028
:10193000C6F86090FFF76CFC044606E025E000BFA7
:10194000FFF766FC001B022809D828688001F7D53C
:101950001BE000BFFFF75CFC001B022802D903203C
:10196000BDE8F88F28688001F4D40EE00128F7D094
:101970006868226A00F48031914204D1616A00F4FF
:101980007010884201D00120EAE70020E8E700005B
:101990000010024000004242800442421000002039
:1019A0000070004010B5401EB0F1807F01D30120CF
:1019B00010BD4FF0E02460610F21601700F07CFD46
:1019C0000020A06107202061002010BD70477047F3
:1019D000F8B5016804460868CA684B6910F00F0F33
:1019E0004FF0000559D003F0010602F49077374319
:1019F00065D0C10705D0D10503D5616C41F0010167
:101A00006164410705D5D90703D0616C41F002013B
:101A10006164810705D5D90703D0616C41F00401E9
:101A20006164010707D502F02001314303D0616CE6
:101A300041F008016164616C00293AD0800604D548
:101A4000900602D5204600F0B0FB20684069616C2A
:101A5000C0F38010090700D460B3204600F070FB8B
:101A600020684069400621D52068143050E8001FE6
:101A700021F0400140E80012002AF5D1E06BA8B146
:101A80006D494163E06BFFF745F9002811D0E06B29
:101A9000416B01B0BDE8F040084783060FD59306BF
:101AA0000DD52046BDE8F84000F07FBB2046FFF78B
:101AB0008EFFF8BD2046FFF78AFF6564F8BD266BF0
:101AC0002023012E7CD1C6067AD5D60678D50868A3
:101AD0004868009048694FF00206400640D5E16B27
:101AE000086840680004000CE8D0A28D8242E5D965
:101AF000E085886920282DD020680C3050E8001F30
:101B000021F4807140E80012002AF5D120681430D9
:101B100050E8001F21F0010140E80012002AF5D131
:101B20002068143050E8001F21F0400140E8001206
:101B3000002AF5D184F84230256320680C3050E843
:101B4000001F21F0100140E80012002AF5D1E06BDF
:101B5000FFF7BCF86663A08DE18D401A81B22AE0E0
:101B6000A08DE18D401A81B2E08D0028A6D0002919
:101B7000A4D022680C3252E8000F20F4907042E8A2
:101B80000007002FF5D12068143050E8002F22F014
:101B9000010240E80027002FF5D184F84230256388
:101BA00020680C3050E8002F22F0100240E800239B
:101BB000002BF5D166632046FFF708FFF8BDFFE76D
:101BC00005062BD5150629D594F841002128F5D115
:101BD000A068B0F5805F01D12069B0B1206A411CD6
:101BE0002162216800784860E08C401E0004000CEF
:101BF000E084E3D12068C16821F08001C1602068E1
:101C0000C16841F04001C160D8E7206A0088C0F394
:101C100008004860206A801C2062E5E74006CDD5B8
:101C20005006CBD5CA68204622F04002CA6084F82C
:101C3000413000F01EF9C1E74320000870B50400F0
:101C400004D094F84100002510B106E0012070BDD9
:101C500084F84050204600F023F8242084F8410006
:101C60002068C16821F40051C160204600F0FEFAEE
:101C70002068016921F4904101612068416921F0E7
:101C80002A0141612068C16841F40051C160656466
:101C9000202084F8410084F842006563002070BD74
:101CA00070B586B00025064600950195029503950E
:101CB00000682349884240D12249C86940F4003075
:101CC000C861C86900F400300490886940F00400DD
:101CD000886188691C4C00F0040004900420009086
:101CE000022001900320039069462046FFF792F9F5
:101CF0000820CDE900050120029069462046FFF743
:101D000089F9134C1148C4E900058020C4E9025048
:101D100020202561C4E905502046E561FFF7F0F871
:101D200008B1FEF7AFFDF46300221146262066627B
:101D3000FFF7D2FA2620FFF7C1FA06B070BD000007
:101D40000044004000100240000801406C000240C6
:101D50009001002090F84230202B01D002207047E3
:101D600021B11AB10023036300F0DCBA01207047EF
:101D700010B5084A016891420BD1074C074B2178F6
:101D80004A421944D2B24FF0FF3300F025F8002048
:101D9000207010BD0044004000000020180000200A
:101DA00070B50A4A016891420ED1094C4FF0FF33D9
:101DB0002178C1F18002D5B2064A11442A4600F0CA
:101DC0000BF820782844207070BD000000440040CB
:101DD00000000020180000202DE9F843044690F888
:101DE00041001F4616460D46202802D00220BDE8BD
:101DF000F8837DB176B100206064212084F8410031
:101E0000FFF706FAA6848046E684A068B0F5805FF6
:101E100002D003E00120EAE7206910B12E46002538
:101E20000EE000260CE08021204600F0C3FAA0B9A5
:101E3000AEB116F8010B21684860E08C401EE084CA
:101E4000E08C43464FF0000200970028EBD14FF0A2
:101E50004001204600F0AEFA30B10320C7E735F864
:101E6000020BC0F30800E6E7202084F841000020C0
:101E7000BDE77047FEE7000001210148FFF7BAB94E
:101E8000000801403EB500241148009401940294DA
:101E90000E498460016004730475012505614FF4E7
:101EA00060214460C161FEF771FD08B1FEF7EAFCF4
:101EB0001020CDE90005694602940548FEF7E4FCD0
:101EC000002801D0FEF7DEFC3EBD000000240140EA
:101ED00018010020094808B5416941F0010141613C
:101EE0004069002200F00100009011461020FFF729
:101EF000F3F9BDE808401020FFF7E0B900100240F8
:101F000070B586B000251C48009501950295039593
:101F1000816941F020018161816901F02001049112
:101F2000816941F0040181618069144E00F0040070
:101F30000122049011463046FFF764F90320CDE9F1
:101F4000025001240094694601943046FFF762F87C
:101F5000600200900A48CDE9010469463046FFF767
:101F600059F8002211461720FFF7B6F91720FFF79E
:101F7000A5F906B070BD0000001002400008014045
:101F8000000021100C4810B50A4901604FF4E131FE
:101F90004160002181600C22C160C0E904128161AE
:101FA000C161FFF74BFE002803D0BDE81040FEF7EB
:101FB00069BC10BD0044004048010020FEE7FEE778
:101FC00070477047FFF72AB930B593B028216846AB
:101FD000FEF7BFF814210AA8FEF7BBF80025012080
:101FE0000F9510951195010412958DE8230004902A
:101FF0004FF4E010CDE90810022407946846FFF77B
:1020000041FB08B172B6FEE70AA90F2081E8310052
:102010004FF48060CDE90D0502210AA8FFF756FABA
:1020200008B172B6FEE74FF4004011900F940FA86C
:10203000FFF7D6F9002801D072B6FEE713B030BD25
:10204000704710B5406A0021C185C184FFF7BFFC0D
:1020500010BD70B5446A2068406994F84110C0F31F
:10206000C0100025212904D118B1E584204600F0D4
:102070008EF82068406994F84210C0F3801022293D
:1020800004D118B1E585204600F05AF8606C40F0A4
:10209000100060642046FFF79AFC70BD10B5014641
:1020A000406A096809684FF0000289062ED4C2858B
:1020B00001680C3151E8003F23F4807341E800349B
:1020C000002CF5D10168143151E8003F23F00103E1
:1020D00041E80034002CF5D10168143151E8003F8B
:1020E00023F0400341E80034002CF5D1202180F892
:1020F0004210016B012909D101680C3151E8003F00
:1021000023F0100341E80034002CF5D14263016B49
:10211000012902D0FFF72CFE10BD818DFFF756FC80
:1021200010BD10B5406A01214163016B012902D045
:10213000FFF736FE10BD818D4908FFF747FC10BD43
:1021400001680C3151E8002F22F4907241E800231D
:10215000002BF5D10168143151E8002F22F0010263
:1021600041E80023002BF5D1016B012909D1016859
:102170000C3151E8002F22F0100241E80023002B1F
:10218000F5D1202180F842100021016370470168D9
:102190000C3151E8002F22F0C00241E80023002B4F
:1021A000F5D1202180F84110704708B590F8421011
:1021B000222901D0022008BD82684FF480539A4240
:1021C00001D1016921B1816A9A421BD04AB10AE06A
:1021D0000268816A5268C2F308020A80816A891C17
:1021E00008E0026972B10268526802F07F020A7068
:1021F000816A491C8162C18D491E0904090CC1858F
:1022000003D01BE002685268F1E70168CA6822F057
:102210002002CA600168CA6822F48072CA6001683C
:102220004A6922F001024A61202180F8421000210F
:102230004163026B012A03D0FFF79AFD002008BD1D
:10224000016301680C3151E8002F22F0100241E8CF
:102250000023002BF5D101680A68D20602D50A686E
:1022600049680091818DFFF7B1FBE7E770B504463F
:1022700000680169E26821F440511143016121695C
:10228000A0680843616908432168CA6841F20C6389
:102290009A430243CA6020684169A26921F44071EF
:1022A000114341611E492068884202D1FFF7B4F909
:1022B00001E0FFF7A1F900EBC00101EB001260683B
:1022C00064218000B2FBF0F3B3FBF1F36FF018066A
:1022D0007343B2FBF0F5B2FBF0F605EB8305322356
:1022E00003EB0515B5FBF1F5B6FBF1F605F0F005CE
:1022F00005EB0615B2FBF0F6B2FBF0F0B0FBF1F027
:102300006FF01802504306EB800003EB0010B0FBA7
:10231000F1F0216800F00F002844886070BD0000D3
:102320000038014038B5816204468285002013469A
:102330006064222284F84220E56B1B4AAA62E56BA6
:102340001A4AEA62E56B1A4A2A63E26B50630A464C
:102350002168E06B091DFEF701FE206801684068F6
:102360000090206948B120680C3050E8001F41F40B
:10237000807140E80012002AF5D12068143050E83E
:10238000001F41F0010140E80012002AF5D1206849
:10239000143050E8001F41F0400140E80012002ACC
:1023A000F5D1002038BD00009D2000082321000841
:1023B000532000082DE9F041984617460E46044682
:1023C000069D27E0681C25D02DB1FEF721FFA0EB6C
:1023D0000800A8421ED920680C3050E8001F21F4E4
:1023E000D07140E80012002AF5D12068143050E87E
:1023F000001F21F0010140E80012002AF5D1202041
:1024000084F8410084F84200002084F84000032052
:10241000BDE8F0812068006836EA000004D00020A2
:10242000B842CFD00020F3E70120F9E710B5044807
:10243000FFF7CEFABDE81040014800F003B80000F5
:102440004801002038B50F4A0168914218D10A6846
:10245000D243D20614D40A68496800910A4909682F
:1024600049680A4C4A424FF0FF332178521AD5B2DC
:10247000074A11442A46FFF7AFFC20782844207011
:1024800038BD000000440040900100200000002002
:1024900018000020FEE700000FB4054B10B503A99B
:1024A000044A029800F0EAF810BC5DF814FB000042
:1024B000AD2D0008140000200907090E002804DBD8
:1024C00000F1E02080F80014704700F00F0000F1E8
:1024D000E02080F8141D704702E008C8121F08C1F0
:1024E000002AFAD170477047002001E001C1121F95
:1024F000002AFBD1704700002DE9FF5F82B0002168
:10250000DDE90430020DDDF840B0034318D044F695
:102510001050A2F2FF3242431514119801281FD027
:10252000A5EB0B00401C5FEA000A4FF000064E4F7F
:10253000DFF83891B046504615D5CAF1000413E0D3
:10254000119801244AA3012801D16FEA0B010298D6
:10255000119AC0E90031C0E9024206B0BDE8F09F1F
:10256000CBF10000DFE704460021404A491842EB66
:102570000450CDE9001012E0E00707D032463B4698
:1025800040464946FDF797FE8046894632463B461F
:1025900010461946FDF78FFE06460F466410002CC4
:1025A000EAD1DDE90401DDE90023BAF1000F06DA22
:1025B000FDF781FE42464B46FDF77DFE05E0FDF747
:1025C000ECFE42464B46FDF7E8FE04460E4600226E
:1025D000284BFEF7A1F803D84FF0FF30014607E083
:1025E0000022254B20463146FDF7BEFDFEF77CF864
:1025F000102409E0002C0ADB0A220023FDF78EFFDD
:10260000039B30321A55641E50EA0102F2D1641C59
:10261000039AC4F111031444119A012A03D0012230
:1026200008430DD10AE0084304D000204FF0110BFD
:10263000119072E7A3EB0B056D1E0DE05B4504DD09
:102640004FF0000205F1010504E003DA4FF000024B
:10265000A5F10105002AECD002981199C0E90231D8
:10266000C0E9004579E70000000014400000F03F99
:10267000300000000000F0430000E03F2DE9FF4F74
:1026800095B09B468946064600250FE2252877D15E
:1026900000242746F84A0121059400E0044316F877
:1026A000013F203B01FA03F01042F7D130782A288D
:1026B00011D06FF02F033078A0F13002092A16D81C
:1026C000059A44F0020402EB820203EB420210443A
:1026D000761C0590EFE759F8042B0592002A03DADF
:1026E000504244F40054059044F00204761C3078C3
:1026F0002E2816D116F8010F44F004042A280DD014
:102700006FF02F023078A0F13003092B09D807EBC6
:10271000870302EB4303C718761CF3E759F8047BE1
:10272000761C30786C280FD006DC4C2817D068282F
:102730000DD06A2814D104E0742810D07A280FD163
:102740000DE044F400140AE044F4801401E044F481
:1027500040147278824202D104F58014761C761CF3
:10276000307866280BD013DC582877D009DC002895
:1027700075D04528F6D04628F4D047281AD19DE1D7
:1027800018E0632835D0642879D0652812D195E106
:10279000702873D008DC6728F1D069286FD06E28C4
:1027A0000DD06F2806D1B5E073282CD0752875D0D0
:1027B000782874D05A46179990476D1C75E1C4F378
:1027C0000250022809D003280DD0D9F8001004289F
:1027D0000DD00D6009F1040967E1D9F80010EA177E
:1027E000C1E90052F6E7D9F800100D80F2E70D704C
:1027F000F0E719F8041B8DF8001000208DF8010097
:10280000EA46012003E059F804AB4FF0FF306107BE
:102810004FF0000102D40DE008F101018846B942F1
:102820000FDA8045F8DB1AF808100029F4D108E027
:1028300008F1010188468142FADB1AF808100029E4
:10284000F6D105985B46A0EB080721463846179A53
:1028500000F094FA284400EB080507E04DE029E178
:102860000DE01AF8010B5A4617999047B8F1010884
:10287000F7D25B4621463846179A13E142E00A2216
:102880000092C4F302524FF0000A022A08D059F80D
:1028900004CB032A4FEAEC710AD00DE029E02AE0CC
:1028A00009F1070121F00702F2E802C1914609E0AF
:1028B0000FFA8CFC4FEAEC71042A03D14FFA8CFC1E
:1028C0004FEAEC71002907DA0A460021DCF1000C1E
:1028D00061EB02012D2202E0220504D52B228DF8A6
:1028E0000420012203E0E20701D02022F7E790460E
:1028F00059E00A2102E010220DE010214FF0000AF9
:1029000000910BE010224FF0000A44F00404082765
:10291000009203E008224FF0000A0092C4F3025232
:10292000022A05D059F804CB0021032A08D009E077
:1029300009F1070121F00702F2E802C1914605E022
:102940001FFA8CFC042A01D10CF0FF0C4FF0000898
:10295000220728D5702806D0009B83F0100353EA85
:102960000A0305D00EE040228DF80420012208E081
:102970005CEA010206D030228DF804208DF80500B3
:1029800002229046009B83F0080353EA0A030AD10F
:102990005CEA010201D1620705D530228DF80420DE
:1029A0004FF001087F1E582804D034A003900EA8D1
:1029B00002900DE036A0F9E753466046009AFDF715
:1029C000ADFD84460398825C0298401E029002701E
:1029D0005CEA0100F0D1029806A9081A00F1200A69
:1029E000600702D524F4803400E00127574502DD5A
:1029F000A7EB0A0000E0002000EB0A010090059818
:102A00004144401A0590E00306D45B462146179ADC
:102A1000059800F0B3F90544002706E001A85A46DE
:102A2000C05D179990476D1C7F1C4745F6DBE0039E
:102A30000CD55B462146179A059800F09FF905448E
:102A400004E030205A46179990476D1C0099481EA3
:102A500000900029F5DC08E0029802995A460078B7
:102A6000491C0291179990476D1CBAF10001AAF117
:102A7000010AF1DC65E10000092801003031323340
:102A800034353637383961626364656600000000AA
:102A90003031323334353637383941424344454694
:102AA0000000000000F058F90544761C307800283A
:102AB0007FF4ECAD19B02846BDE8F08F620700D472
:102AC000062709F1070222F0070CFCE80223E14681
:102AD00003F000485FEA080C02D00FF2702C0DE002
:102AE0005FEA045C02D50FF2682C07E05FEAC47C61
:102AF00002D00FF2602C01E0AFF2700C4FF0FF3803
:102B000023F00043CDF850C065280CD006DC4528E2
:102B100009D046281DD047283DD13DE0662818D071
:102B200067287ED138E00021112F01DB112000E061
:102B3000781CCDE9000106A90EA8FFF7DDFCDDE950
:102B40000F010E9A03910021009207F1010A0491EE
:102B50004DE04FF000400097CDE9011006A90EA806
:102B6000FFF7CAFCDDE90F0203920E9B11990022C8
:102B7000DDF80CA00093049211B9791C00EB010A56
:102B8000B7EB0A0004D4C0F1FF3007F1010A04904A
:102B9000AAEB0700019044E0012F00DA0127002191
:102BA000112F01DD112000E03846CDE9000106A912
:102BB0000EA8FFF7A1FCDDE90F010E9A0391002199
:102BC00004910092BA4621070CD40399514500DACA
:102BD0008A46BAF1010F05DD009AAAF10101515CA4
:102BE000302908D0B84202DA10F1040F06DA0121C8
:102BF000CDE9011015E0AAF10101E9E7002805DCA3
:102C0000049901440491AAEB000102E0411C5145E2
:102C100000DD8A460499401A401C01904FF00040A4
:102C20000290200704D40198504501DBCDF80480C0
:102C300000208DF84F0002980DF14F07B0F1004FC2
:102C400025D02B200E9002984FF0020800280CDAB5
:102C5000404202902D200E9007E00A210298FDF7D5
:102C600047FC3031029007F8011DB8F10001A8F1CE
:102C70000108F2DC02980028EFD1791E0E98087046
:102C8000307800F0200040F0450007F8020D12A84F
:102C9000C01B00F107081498007800B1012000EB78
:102CA0000A01019801EBE07105984144401A401E69
:102CB0000590E00306D45B462146179A059800F07C
:102CC0005DF805441498007818B15A461799904752
:102CD0006D1CE00324D55B462146179A059800F049
:102CE0004DF805441CE00498002807DBDDE90301EA
:102CF000884203DD0098405C179901E01799302065
:102D00005A469047049805F10105401C049001982B
:102D1000401E019004D12E205A46179990476D1CF1
:102D2000BAF10001AAF1010ADDDC05E017F8010B98
:102D30005A46179990476D1CB8F10001A8F1010897
:102D4000F4DC5B462146179A0598ABE62D0000009F
:102D50002B000000200000002DE9F0410446002572
:102D60001E461746880404D405E039462020B047A3
:102D70006D1C641EF9D52846BDE8F0812DE9F041AF
:102D8000044600251E469046C80301D5302700E0C2
:102D90002027880404D505E041463846B0476D1C1D
:102DA000641EF9D52846BDE8F081000013B54FF642
:102DB000FF73012269460248FFF70EF800981CBD18
:102DC00048010020FEF732FAFFF7FEF8FFF798F807
:102DD000FFF780F8FFF7D6F8FFF754F84FF480724A
:102DE00025492648FEF7B6FF24480068C16841F02F
:102DF0001001C16022A0FFF74FFB244D244EDFF8E5
:102E00009480DFF89490DFF894A0DFF894B04FF04E
:102E1000663400272348FDF7F9FE64212148FDF7B9
:102E200057FE18B91F48FDF7ADFD07463846FDF7B8
:102E300023FB22462B46FDF73EFA00223346FDF7E0
:102E4000ACFA42464B46FDF733FA52465B46FDF775
:102E5000A4FA0022144BFDF787F9FDF72DFBFDF7CF
:102E600018FB02460B4611A0FFF716FB4FF4FA7051
:102E7000FEF7ACF8CDE70000180000204801002064
:102E800041444320544553540A00000066660A40FA
:102E900000FEAF40E17A14AE47E1F63F22FDF67541
:102EA000E09C713F18010020000039406164635FBD
:102EB00076616C75653A20252E3266200A00000086
:102EC000010202030405060708090A0B0C0D0E0F88
:102ED0001010010202030405060708090A0B0C0D75
:102EE0000E0F10100000000000000000010203049B
:102EF0000607080900000000010203041C2F000857
:102F00000000002018000000D8240008342F00081A
:102F100018000020C0050000E824000800000000A0
:102F20000100000010000000000000000024F40078
:042F3000000000009D
:04000005080000ED02
:00000001FF
