:020000040800F2
:10000000C005002001010008AB1300087B120008A6
:10001000A91300086D01000869180008000000001D
:10002000000000000000000000000000AF13000806
:10003000A701000800000000AD130008B11300087C
:100040006D1800081B0100081B0100081B010008B7
:100050001B0100081B0100081B0100081B01000810
:100060001B0100081B0100081B0100081B01000800
:100070001B0100081B0100081B0100081B010008F0
:10008000710100081B0100081B0100081B0100088A
:100090001B0100081B0100081B010008A901000842
:1000A0001B0100081B0100081B0100081B010008C0
:1000B0001B0100081B0100081B0100081B010008B0
:1000C0001B0100081B0100081B0100081B010008A0
:1000D0001B0100081B010008011800081B01000893
:1000E0001B0100081B0100081B010008DFF80CD0F1
:1000F00000F02AF80048004701190008C005002058
:100100000648804706480047FEE7FEE7FEE7FEE7B1
:10011000FEE7FEE7FEE7FEE7FEE7FEE71314000852
:10012000ED000008D2B201E000F8012B491EFBD21D
:1001300070470022F6E710B513460A4604461946F2
:10014000FFF7F0FF204610BD064C074D06E0E068C3
:1001500040F0010394E8070098471034AC42F6D30E
:10016000FFF7C8FFA4190008C4190008FEE7000043
:10017000014800F08FB800006401002030B590F80D
:1001800040500124AC40C56B6C60046863604368F8
:10019000102B036803D099600068C26030BD9A607C
:1001A0000068C16030BD70474FF4007000F09AB92C
:1001B00072B6FEE710B590F821100022022905D092
:1001C0000421816380F82020012010BD01680B68A4
:1001D00023F00E030B6001680B6823F001030B6032
:1001E00090F84030C46B012101FA03F3636080F89A
:1001F000211080F82020104610BD000010B590F8A6
:1002000021100024022903D00421816301243DE050
:1002100001680A6822F00E020A6001680A6822F08A
:1002200001020A601A4A0168914201D1012121E0CC
:10023000174A1432914201D110211BE0144A28328E
:10024000914201D1891515E0114A3C32914201D108
:1002500089140FE00E4A5032914202D14FF480319E
:1002600008E00B4A6432914202D14FF4801101E060
:100270004FF08071064A083A5160012180F8211040
:10028000002180F82010416B01B18847204610BD45
:10029000080002402DE9F05FC16B0C6801680B6833
:1002A000D0F840C0042202FA0CF2494DDFF824A134
:1002B000494E4A4FDFF828B1DFF828E122422CD01E
:1002C0005A072AD50A68920603D40A6822F0040263
:1002D0000A600168A94201D1042219E0514501D107
:1002E000402215E0B14202D14FF4806210E0B942E1
:1002F00002D14FF480420BE0594502D14FF48022E5
:1003000006E0714502D14FF4800201E04FF08062B7
:100310002F4908394A60C16A3BE04FF0020808FAE9
:100320000CF818EA040F4FF000094FF0010235D025
:100330005FEA837832D50B689B0605D40B6823F0FF
:100340000A030B6080F821200168A94201D1022232
:1003500019E0514501D1202215E0B14202D14FF4FC
:10036000007210E0B94202D14FF400520BE059453F
:1003700002D14FF4003206E0714502D14FF4001271
:1003800001E04FF00072124908394A6080F820906D
:10039000816A00291AD0BDE8F05F0847082505FAF0
:1003A0000CF5254212D01B0710D50B6823F00E0365
:1003B0000B6090F84010C36B02FA01F15960826340
:1003C00080F8212080F82090016BE2E7BDE8F09FE3
:1003D000080002401C00024030000240440002407D
:1003E000580002406C00024030B528B308C81349D9
:1003F00014221944B1FBF2F18900C16310498163F1
:10040000022141771A6843F6F0718A43D0E900145B
:100410002143D0E902452C43214304692143446927
:100420002143846921431143196000214163012262
:1004300042770177084630BD012030BDF8FFFDBF8F
:100440000000024070B5044690F820000025012805
:100450000CD0012084F8200094F821600020012EA7
:1004600006D084F820000225284670BD022070BD09
:10047000022684F82160A0632068066826F0010641
:1004800006602046FFF77AFEE06A002820680168CF
:1004900002D041F00E0106E021F004010160206865
:1004A000016841F00A0101602068016841F0010122
:1004B0000160D9E770B5044600F022F90546601CDA
:1004C00002D004480078044400F01AF9401BA0420E
:1004D000FAD370BD08000020B0F5007F01D100F014
:1004E000CDBE7047044910B50A68024202D00860C8
:1004F000FFF7F2FF10BD0000140401402DE9F84F92
:10050000DFF8B8910024A9F1040B23460F2709F165
:10051000040AABF1040EC9E00125A5402A40AA4215
:100520007DD1674ED1F804C0ACEB0608B44532D09B
:1005300014DCBCF1030F3AD009DCBCF1000F2AD067
:10054000BCF1010F1CD0BCF1020F31D11DE0BCF198
:10055000110F17D0BCF1120F2AD119E0B8F5881F7E
:1005600019D006DCB8F5803F15D0B8F5801F1FD133
:1005700011E0B8F5001F0ED0B8F5041F18D10AE03D
:10058000CB6815E0CB681B1D12E0CB6808330FE089
:10059000CB680C330CE08B682BB1012B4FF00803B8
:1005A00003D0456104E0042302E0056100E000237C
:1005B000FF2A01D8064601E000F104064FEA84054F
:1005C00001D9A5F12005D6F8008007FA05FC28EA34
:1005D0000C0803FA05F548EA0508C6F800804D68DE
:1005E000ED0062D5374DAE6946F00106AE61AD69EA
:1005F00024F0030605F001050095334D06EB050CCC
:10060000DCF80850A607360F07FA06F825EA0805B1
:10061000DFF8B880404503D14FF0000817E044E010
:10062000DFF8AC80404502D14FF001080FE0DFF861
:10063000A480404502D14FF0020808E0DFF898801E
:10064000404502D14FF0030801E04FF0040808FADA
:1006500006F848EA0508CCF808804D68D9F800602B
:10066000ED024D4601D5164300E096432E604D68DD
:10067000DAF80060AD02554601D5164300E0964316
:100680002E604D68DBF80060AD035D4601D5164372
:1006900000E096432E604D68DEF80060ED0375467D
:1006A00001D5164300E096432E60641C0D682A466F
:1006B000E5407FF431AFBDE8F88F00000804014049
:1006C000000011100010024000000140000801402D
:1006D000000C0140001001400014014080680840F7
:1006E00000D001207047C26821EA02030A4043EAB1
:1006F0000241016170470AB1016170470904FBE7DB
:1007000001488068704700000800002002488168A6
:10071000027811448160704708000020074810B536
:10072000016841F010010160032000F06DF80F2016
:1007300000F006F800F024F8002010BD0020024070
:1007400070B50D4D04464FF47A712878B1FBF0F086
:100750000A490968B1FBF0F000F0D4FA48B9102C4E
:1007600007D200222146501E00F02EF800206C60B7
:1007700070BD012070BD00000800002014000020A2
:10078000094808B5816941F001018161816901F081
:1007900001010091C16941F08051C161C06900F05F
:1007A0008050009008BD000000100240002809DBC6
:1007B00000F01F02012191404009800000F1E0207B
:1007C000C0F8001170470000F0B40E4B1B680C46D7
:1007D000C3F30223C3F10705042D00D90425191D15
:1007E000072901D2002300E0DB1E012606FA05F1ED
:1007F000491E214099409E40761E16403143F0BC70
:1008000001F042B80CED00E0064900F0070208686C
:100810004FF6FF03184040EA0220034A10430860E5
:10082000704700000CED00E00000FA052DE9F047EC
:100830000F46050061D0434E306800F00700B84213
:1008400009D2306820F0070038433060306800F08B
:100850000700B84251D128683B4C810712D54007A8
:1008600003D5606840F4E06060602878000703D535
:10087000606840F4605060606068A96820F0F00033
:10088000084360602878C00728D06868012810D025
:100890002168022810D0890700292EDA616821F02A
:1008A000030101436160FFF72BFF804641F2883965
:1008B0000DE021688903EFE78901EDE7FFF720FFED
:1008C000A0EB0801494502D90320BDE8F087606824
:1008D000696800F00C00B0EB810FEFD1306800F0D8
:1008E0000700B8420BD9306820F007003843306069
:1008F000306800F00700B84201D00120E5E7287811
:10090000400705D56068E96820F4E060084360604E
:100910002878000706D56068296920F4605040EA0D
:10092000C100606000F038F86168084AC1F3031143
:10093000515CC8400649086006480068FFF700FFA0
:100940000020C2E700200240001002408A1900087F
:10095000140000200C000020044805490068496884
:10096000044AC1F30221515CC840704714000020C2
:10097000001002409A1900080448054900684968B7
:10098000044AC1F3C221515CC840704714000020E2
:10099000001002409A1900080E4A51680E4801F0F2
:1009A0000C03042B11D0082B0FD10C48C1F3834347
:1009B000C903C05C0AD55168084AC1F34041921E80
:1009C000515C054A5043B0FBF1F07047044948437D
:1009D000704700000010024000127A007A190008E7
:1009E00000093D002DE9F84F040070D02078C04D7B
:1009F000C00749D06868C0F38100012807D0686843
:100A0000C0F38100022809D16868C00306D52868B0
:100A1000800339D560680028E7D035E06068B0F51C
:100A2000803F0BD010B1B0F5A02F11D0286820F472
:100A300080302860286820F4802002E0286840F494
:100A400080302860606890B1FFF75AFE06460AE0E1
:100A5000286840F480202860F0E700BFFFF750FED0
:100A6000801B642873D828688003F7D50CE0FFF753
:100A700047FE064605E000BFFFF742FE801B6428E4
:100A8000F0D828688003F7D420789A4E80074FF07A
:100A900001094FF0000839D5686810F00C0F07D035
:100AA0006868C0F38100022809D16868C00306D4D1
:100AB0002868800714D52069012808D110E0206932
:100AC000B0B1C6F80090FFF71BFE074605E00AE14B
:100AD000FFF716FEC01B0228C4D828688007F7D588
:100AE0002868616920F0F80040EAC10028600DE044
:100AF000C6F80080FFF704FE074604E0FFF700FE9B
:100B0000C01B022823D828688007F7D42078000764
:100B10002CD57948A169D9B1C0F80090FFF7F0FD54
:100B2000074604E0FFF7ECFDC01B02280FD8686AF7
:100B30008007F7D571484FF4FA510068B0FBF1F027
:100B4000009000BF0098411E0091FAD20EE080E0B4
:100B5000C0F80080FFF7D4FD074604E0FFF7D0FDA2
:100B6000C01B022875D8686A8007F7D42078400730
:100B700060D5E8690027C00008D4E86940F08050DB
:100B8000E861E869012700F0805000905C48016846
:100B9000C90513D40168834641F480710160FFF7F1
:100BA000AFFD824606E000BFFFF7AAFDA0EB0A00FA
:100BB00064284ED8DBF80000C005F5D5E0680128B0
:100BC0000AD008B1052813D0286A20F00100286255
:100BD000286A20F0040002E0286A40F00100286240
:100BE000E06841F2883B98B1FFF78AFD82460BE04E
:100BF000286A40F004002862EEE700BFFFF780FD9E
:100C0000A0EB0A0159455AD8286A8007F6D50CE0AE
:100C1000FFF776FD824605E0FFF772FDA0EB0A01C3
:100C200059454CD8286A8007F6D41FB1E86920F0EE
:100C30008050E861E06988B36968C1F381010229E5
:100C400044D00228C6F8608004D0FFF759FD04465E
:100C500038E034E0FFF754FD074604E0FFF750FDAD
:100C6000C01B02282BD828688001F7D4206AB0F571
:100C7000803F05D16868A16820F4003008436860AF
:100C8000D4E908010843696821F4741108436860D5
:100C9000C6F86090FFF734FD044606E025E000BF8B
:100CA000FFF72EFD001B022809D828688001F7D520
:100CB0001BE000BFFFF724FD001B022802D9032020
:100CC000BDE8F88F28688001F4D40EE00128F7D041
:100CD0006868226A00F48031914204D1616A00F4AC
:100CE0007010884201D00120EAE70020E8E7000008
:100CF00000100240000042428004424214000020E2
:100D00000070004010B5401EB0F1807F01D301207B
:100D100010BD4FF0E02460610F21601700F0B4FDBA
:100D20000020A06107202061002010BD704770479F
:100D3000F8B5016804460868CA684B6910F00F0FDF
:100D40004FF0000559D003F0010602F490773743C5
:100D500065D0C10705D0D10503D5616C41F0010113
:100D60006164410705D5D90703D0616C41F00201E8
:100D70006164810705D5D90703D0616C41F0040196
:100D80006164010707D502F02001314303D0616C93
:100D900041F008016164616C00293AD0800604D5F5
:100DA000900602D5204600F0E9FB20684069616C9E
:100DB000C0F38010090700D460B3204600F0A9FBFF
:100DC00020684069400621D52068143050E8001F93
:100DD00021F0400140E80012002AF5D1E06BA8B1F3
:100DE0006D494163E06BFFF709FA002811D0E06B11
:100DF000416B01B0BDE8F040084783060FD593066C
:100E00000DD52046BDE8F84000F0B8BB2046FFF7FE
:100E10008EFFF8BD2046FFF78AFF6564F8BD266B9C
:100E20002023012E7CD1C6067AD5D60678D508684F
:100E30004868009048694FF00206400640D5E16BD3
:100E4000086840680004000CE8D0A28D8242E5D911
:100E5000E085886920282DD020680C3050E8001FDC
:100E600021F4807140E80012002AF5D12068143086
:100E700050E8001F21F0010140E80012002AF5D1DE
:100E80002068143050E8001F21F0400140E80012B3
:100E9000002AF5D184F84230256320680C3050E8F0
:100EA000001F21F0100140E80012002AF5D1E06B8C
:100EB000FFF780F96663A08DE18D401A81B22AE0C8
:100EC000A08DE18D401A81B2E08D0028A6D00029C6
:100ED000A4D022680C3252E8000F20F4907042E84F
:100EE0000007002FF5D12068143050E8002F22F0C1
:100EF000010240E80027002FF5D184F84230256335
:100F000020680C3050E8002F22F0100240E8002347
:100F1000002BF5D166632046FFF708FFF8BDFFE719
:100F200005062BD5150629D594F841002128F5D1C1
:100F3000A068B0F5805F01D12069B0B1206A411C82
:100F40002162216800784860E08C401E0004000C9B
:100F5000E084E3D12068C16821F08001C16020688D
:100F6000C16841F04001C160D8E7206A0088C0F341
:100F700008004860206A801C2062E5E74006CDD565
:100F80005006CBD5CA68204622F04002CA6084F8D9
:100F9000413000F01EF9C1E71514000870B50400D7
:100FA00004D094F84100002510B106E0012070BD86
:100FB00084F84050204600F023F8242084F84100B3
:100FC0002068C16821F40051C160204600F038FB60
:100FD0002068016921F4904101612068416921F094
:100FE0002A0141612068C16841F40051C160656413
:100FF000202084F8410084F842006563002070BD21
:1010000070B586B0002506460095019502950395BA
:1010100000682349884240D12249C86940F4003021
:10102000C861C86900F400300490886940F0040089
:10103000886188691C4C00F0040004900420009032
:10104000022001900320039069462046FFF756FADC
:101050000820CDE900050120029069462046FFF7EF
:101060004DFA134C1148C4E900058020C4E9025030
:1010700020202561C4E905502046E561FFF7B4F959
:1010800008B1FFF795F8F463002211462620666246
:10109000FFF79AFB2620FFF789FB06B070BD000022
:1010A0000044004000100240000801406C00024073
:1010B0006401002090F84230202B01D002207047BC
:1010C00021B11AB10023036300F016BB0120704761
:1010D00010B5084A016891420BD1074C074B2178A3
:1010E0004A421944D2B24FF0FF3300F025F80020F5
:1010F000207010BD00440040000000201C000020B3
:1011000070B50A4A016891420ED1094C4FF0FF3385
:101110002178C1F18002D5B2064A11442A4600F076
:101120000BF820782844207070BD00000044004077
:10113000000000201C0000202DE9F843044690F830
:1011400041001F4616460D46202802D00220BDE869
:10115000F8837DB176B100206064212084F84100DD
:10116000FFF7CEFAA6848046E684A068B0F5805FDB
:1011700002D003E00120EAE7206910B12E460025E5
:101180000EE000260CE08021204600F0FDFAA0B918
:10119000AEB116F8010B21684860E08C401EE08477
:1011A000E08C43464FF0000200970028EBD14FF04F
:1011B0004001204600F0E8FA30B10320C7E735F8D7
:1011C000020BC0F30800E6E7202084F8410000206D
:1011D000BDE77047044A1168491C1160502901D8C5
:1011E00000F046B8704700000400002010B5016808
:1011F0004A68D243920507D48A68D243D20703D102
:10120000921E8A60FFF7E6FF10BD10B504000FD0F4
:1012100000F010F8E068216840F080000860616824
:1012200020690843A168084321684860002010BD78
:10123000012010BD08B500680B49884212D10B4847
:10124000C16941F40061C161C069002200F400601D
:10125000009011461046FFF7B7FABDE8084000209D
:10126000FFF7A4BA08BD0000002C004000100240A7
:10127000C1680068016000207047FEE70121014855
:10128000FFF731BA00080140094808B5416941F04B
:10129000010141614069002200F001000090114607
:1012A0001020FFF791FABDE808401020FFF77EBA42
:1012B0000010024070B586B000251C4800950195CD
:1012C00002950395816941F020018161816901F0F6
:1012D00020010491816941F0040181618069144E0B
:1012E00000F004000122049011463046FFF703FA93
:1012F0000320CDE902500124009469460194304650
:10130000FFF7FCF8600200900A48CDE90104694645
:101310003046FFF7F3F8002211461720FFF754FA82
:101320001720FFF743FA06B070BD0000001002401E
:1013300000080140000021100C4810B50A49016066
:101340004FF4E1314160002181600C22C160C0E9AD
:1013500004128161C161FFF721FE002803D0BDE8BE
:101360001040FEF725BF10BD004400401C010020C6
:101370000C4810B50A4901604FF4C07141604F211B
:1013800081605F21C1604FF400710161FFF73DFF93
:10139000002803D0BDE81040FEF70ABF10BD0000D2
:1013A000002C0040A8010020FEE7FEE770477047D0
:1013B000FFF7ACB930B58FB028216846FEF7B9FE0B
:1013C00014210AA8FEF7B5FE01210804CDE900109A
:1013D0000024029402250491CDE907504FF4E01057
:1013E00009906846FFF7FEFA08B172B6FEE70F20D3
:1013F000CDE90A054FF48060CDE90C4002210AA82E
:101400000E94FFF713FA002801D072B6FEE70FB072
:1014100030BD704710B5406A0021C185C184FFF717
:1014200086FC10BD70B5446A2068406994F841108C
:10143000C0F3C0100025212904D118B1E58420464D
:1014400000F08EF82068406994F84210C0F38010D4
:10145000222904D118B1E585204600F05AF8606CC5
:1014600040F0100060642046FFF761FC70BD10B5CD
:101470000146406A096809684FF0000289062ED4C7
:10148000C28501680C3151E8003F23F4807341E8C4
:101490000034002CF5D10168143151E8003F23F0ED
:1014A000010341E80034002CF5D10168143151E802
:1014B000003F23F0400341E80034002CF5D1202107
:1014C00080F84210016B012909D101680C3151E803
:1014D000003F23F0100341E80034002CF5D14263B3
:1014E000016B012902D0FFF7F3FD10BD818DFFF7DD
:1014F0001DFC10BD10B5406A01214163016B01293B
:1015000002D0FFF7FDFD10BD818D4908FFF70EFCED
:1015100010BD01680C3151E8002F22F4907241E8AF
:101520000023002BF5D10168143151E8002F22F07F
:10153000010241E80023002BF5D1016B012909D1FB
:1015400001680C3151E8002F22F0100241E800231D
:10155000002BF5D1202180F8421000210163704753
:1015600001680C3151E8002F22F0C00241E800234D
:10157000002BF5D1202180F84110704708B590F874
:101580004210222901D0022008BD82684FF4805306
:101590009A4201D1016921B1816A9A421BD04AB1B4
:1015A0000AE00268816A5268C2F308020A80816A0E
:1015B000891C08E0026972B10268526802F07F0279
:1015C0000A70816A491C8162C18D491E0904090C97
:1015D000C18503D01BE002685268F1E70168CA6860
:1015E00022F02002CA600168CA6822F48072CA60D0
:1015F00001684A6922F001024A61202180F8421004
:1016000000214163026B012A03D0FFF761FD002036
:1016100008BD016301680C3151E8002F22F010026F
:1016200041E80023002BF5D101680A68D20602D5F3
:101630000A6849680091818DFFF778FBE7E70000B1
:1016400070B5044600680169E26821F44051114315
:1016500001612169A0680843616908432168CA687B
:1016600041F20C639A430243CA6020684169A2694F
:1016700021F44071114341611E492068884202D122
:10168000FFF77AF901E0FFF767F900EBC00101EB22
:101690000012606864218000B2FBF0F3B3FBF1F349
:1016A0006FF018067343B2FBF0F5B2FBF0F605EBF2
:1016B0008305322303EB0515B5FBF1F5B6FBF1F617
:1016C00005F0F00505EB0615B2FBF0F6B2FBF0F005
:1016D000B0FBF1F06FF01802504306EB800003EB13
:1016E0000010B0FBF1F0216800F00F002844886082
:1016F00070BD00000038014038B581620446828523
:10170000002013466064222284F84220E56B1B4AC5
:10171000AA62E56B1A4AEA62E56B1A4A2A63E26B2F
:1017200050630A462168E06B091DFEF78BFE2068B6
:10173000016840680090206948B120680C3050E88A
:10174000001F41F4807140E80012002AF5D12068A2
:10175000143050E8001F41F0010140E80012002A57
:10176000F5D12068143050E8001F41F0400140E8F6
:101770000012002AF5D1002038BD00006F140008C7
:10178000F5140008251400082DE9F0419846174685
:101790000E460446069D27E0681C25D02DB1FEF7B5
:1017A000AFFFA0EB0800A8421ED920680C3050E81B
:1017B000001F21F4D07140E80012002AF5D1206802
:1017C000143050E8001F21F0010140E80012002A07
:1017D000F5D1202084F8410084F84200002084F8EC
:1017E00040000320BDE8F0812068006836EA000070
:1017F00004D00020B842CFD00020F3E70120F9E761
:1018000010B50448FFF794FABDE81040014800F015
:1018100003B800001C01002038B50F4A016891424E
:1018200018D10A68D243D20614D40A6849680091D4
:101830000A49096849680A4C4A424FF0FF33217847
:10184000521AD5B2074A11442A46FFF775FC207890
:101850002844207038BD000000440040640100208E
:10186000000000201C000020FEE700000148FFF7F8
:10187000BDBC0000A8010020014A024900F023B8C5
:10188000E9180008180000200907090E002804DBE9
:1018900000F1E02080F80014704700F00F0000F124
:1018A000E02080F8141D704702E008C8121F08C12C
:1018B000002AFAD170477047002001E001C1121FD1
:1018C000002AFBD170472DE9F04116460F46044629
:1018D000002503E03946B047641C6D1C20780028C1
:1018E000F8D12846BDE8F08113B54FF6FF73012209
:1018F00069460248FFF720FC00981CBD1C0100202F
:10190000FEF70CFFFFF756FDFFF7D4FCFFF7BCFC1A
:10191000FFF712FDFFF72CFD4FF480720F491048BE
:10192000FFF7C8FB0E480068C16841F01001C160B4
:101930000CA0FFF7A1FF0F4C4FF40075294620467D
:10194000FEF7CCFE0028F9D10A20FEF7B3FD2946A8
:101950002046FEF7C3FE0028F9D0EFE71C00002068
:101960001C010020E68EA5E694B6E695B0E68DAEA5
:101970000A000000000801400102020304050607F6
:1019800008090A0B0C0D0E0F1010000000000000DB
:10199000000001020304060708090000000001021C
:1019A00003040000C4190008000000201C0000000F
:1019B000A8180008E01900081C000020A405000079
:1019C000B81800080000000000000000010000003E
:1019D00010000000000000000024F40000000000DF
:04000005080000ED02
:00000001FF
